{
  "contractName": "Gremlin",
  "abi": [
    {
      "inputs": [],
      "stateMutability": "nonpayable",
      "type": "constructor"
    },
    {
      "anonymous": false,
      "inputs": [
        {
          "indexed": true,
          "internalType": "address",
          "name": "owner",
          "type": "address"
        },
        {
          "indexed": true,
          "internalType": "address",
          "name": "approved",
          "type": "address"
        },
        {
          "indexed": true,
          "internalType": "uint256",
          "name": "tokenId",
          "type": "uint256"
        }
      ],
      "name": "Approval",
      "type": "event"
    },
    {
      "anonymous": false,
      "inputs": [
        {
          "indexed": true,
          "internalType": "address",
          "name": "owner",
          "type": "address"
        },
        {
          "indexed": true,
          "internalType": "address",
          "name": "operator",
          "type": "address"
        },
        {
          "indexed": false,
          "internalType": "bool",
          "name": "approved",
          "type": "bool"
        }
      ],
      "name": "ApprovalForAll",
      "type": "event"
    },
    {
      "anonymous": false,
      "inputs": [
        {
          "indexed": true,
          "internalType": "address",
          "name": "previousOwner",
          "type": "address"
        },
        {
          "indexed": true,
          "internalType": "address",
          "name": "newOwner",
          "type": "address"
        }
      ],
      "name": "OwnershipTransferred",
      "type": "event"
    },
    {
      "anonymous": false,
      "inputs": [
        {
          "indexed": true,
          "internalType": "address",
          "name": "from",
          "type": "address"
        },
        {
          "indexed": true,
          "internalType": "address",
          "name": "to",
          "type": "address"
        },
        {
          "indexed": true,
          "internalType": "uint256",
          "name": "tokenId",
          "type": "uint256"
        }
      ],
      "name": "Transfer",
      "type": "event"
    },
    {
      "inputs": [
        {
          "internalType": "address",
          "name": "to",
          "type": "address"
        },
        {
          "internalType": "uint256",
          "name": "tokenId",
          "type": "uint256"
        }
      ],
      "name": "approve",
      "outputs": [],
      "stateMutability": "nonpayable",
      "type": "function"
    },
    {
      "inputs": [
        {
          "internalType": "address",
          "name": "owner",
          "type": "address"
        }
      ],
      "name": "balanceOf",
      "outputs": [
        {
          "internalType": "uint256",
          "name": "",
          "type": "uint256"
        }
      ],
      "stateMutability": "view",
      "type": "function",
      "constant": true
    },
    {
      "inputs": [
        {
          "internalType": "uint256",
          "name": "tokenId",
          "type": "uint256"
        }
      ],
      "name": "getApproved",
      "outputs": [
        {
          "internalType": "address",
          "name": "",
          "type": "address"
        }
      ],
      "stateMutability": "view",
      "type": "function",
      "constant": true
    },
    {
      "inputs": [
        {
          "internalType": "address",
          "name": "owner",
          "type": "address"
        },
        {
          "internalType": "address",
          "name": "operator",
          "type": "address"
        }
      ],
      "name": "isApprovedForAll",
      "outputs": [
        {
          "internalType": "bool",
          "name": "",
          "type": "bool"
        }
      ],
      "stateMutability": "view",
      "type": "function",
      "constant": true
    },
    {
      "inputs": [],
      "name": "name",
      "outputs": [
        {
          "internalType": "string",
          "name": "",
          "type": "string"
        }
      ],
      "stateMutability": "view",
      "type": "function",
      "constant": true
    },
    {
      "inputs": [],
      "name": "owner",
      "outputs": [
        {
          "internalType": "address",
          "name": "",
          "type": "address"
        }
      ],
      "stateMutability": "view",
      "type": "function",
      "constant": true
    },
    {
      "inputs": [
        {
          "internalType": "uint256",
          "name": "tokenId",
          "type": "uint256"
        }
      ],
      "name": "ownerOf",
      "outputs": [
        {
          "internalType": "address",
          "name": "",
          "type": "address"
        }
      ],
      "stateMutability": "view",
      "type": "function",
      "constant": true
    },
    {
      "inputs": [],
      "name": "renounceOwnership",
      "outputs": [],
      "stateMutability": "nonpayable",
      "type": "function"
    },
    {
      "inputs": [
        {
          "internalType": "address",
          "name": "from",
          "type": "address"
        },
        {
          "internalType": "address",
          "name": "to",
          "type": "address"
        },
        {
          "internalType": "uint256",
          "name": "tokenId",
          "type": "uint256"
        }
      ],
      "name": "safeTransferFrom",
      "outputs": [],
      "stateMutability": "nonpayable",
      "type": "function"
    },
    {
      "inputs": [
        {
          "internalType": "address",
          "name": "from",
          "type": "address"
        },
        {
          "internalType": "address",
          "name": "to",
          "type": "address"
        },
        {
          "internalType": "uint256",
          "name": "tokenId",
          "type": "uint256"
        },
        {
          "internalType": "bytes",
          "name": "_data",
          "type": "bytes"
        }
      ],
      "name": "safeTransferFrom",
      "outputs": [],
      "stateMutability": "nonpayable",
      "type": "function"
    },
    {
      "inputs": [
        {
          "internalType": "address",
          "name": "operator",
          "type": "address"
        },
        {
          "internalType": "bool",
          "name": "approved",
          "type": "bool"
        }
      ],
      "name": "setApprovalForAll",
      "outputs": [],
      "stateMutability": "nonpayable",
      "type": "function"
    },
    {
      "inputs": [
        {
          "internalType": "bytes4",
          "name": "interfaceId",
          "type": "bytes4"
        }
      ],
      "name": "supportsInterface",
      "outputs": [
        {
          "internalType": "bool",
          "name": "",
          "type": "bool"
        }
      ],
      "stateMutability": "view",
      "type": "function",
      "constant": true
    },
    {
      "inputs": [],
      "name": "symbol",
      "outputs": [
        {
          "internalType": "string",
          "name": "",
          "type": "string"
        }
      ],
      "stateMutability": "view",
      "type": "function",
      "constant": true
    },
    {
      "inputs": [
        {
          "internalType": "uint256",
          "name": "tokenId",
          "type": "uint256"
        }
      ],
      "name": "tokenURI",
      "outputs": [
        {
          "internalType": "string",
          "name": "",
          "type": "string"
        }
      ],
      "stateMutability": "view",
      "type": "function",
      "constant": true
    },
    {
      "inputs": [
        {
          "internalType": "address",
          "name": "from",
          "type": "address"
        },
        {
          "internalType": "address",
          "name": "to",
          "type": "address"
        },
        {
          "internalType": "uint256",
          "name": "tokenId",
          "type": "uint256"
        }
      ],
      "name": "transferFrom",
      "outputs": [],
      "stateMutability": "nonpayable",
      "type": "function"
    },
    {
      "inputs": [
        {
          "internalType": "address",
          "name": "newOwner",
          "type": "address"
        }
      ],
      "name": "transferOwnership",
      "outputs": [],
      "stateMutability": "nonpayable",
      "type": "function"
    },
    {
      "inputs": [
        {
          "internalType": "address",
          "name": "to",
          "type": "address"
        },
        {
          "internalType": "string",
          "name": "tokenURI",
          "type": "string"
        }
      ],
      "name": "mintItem",
      "outputs": [
        {
          "internalType": "uint256",
          "name": "",
          "type": "uint256"
        }
      ],
      "stateMutability": "nonpayable",
      "type": "function"
    }
  ],
  "bytecode": "0x60806040523480156200001157600080fd5b506040518060400160405280600781526020017f4772656d6c696e000000000000000000000000000000000000000000000000008152506040518060400160405280600381526020017f4752450000000000000000000000000000000000000000000000000000000000815250816000908051906020019062000096929190620001a6565b508060019080519060200190620000af929190620001a6565b505050620000d2620000c6620000d860201b60201c565b620000e060201b60201c565b620002bb565b600033905090565b6000600760009054906101000a900473ffffffffffffffffffffffffffffffffffffffff16905081600760006101000a81548173ffffffffffffffffffffffffffffffffffffffff021916908373ffffffffffffffffffffffffffffffffffffffff1602179055508173ffffffffffffffffffffffffffffffffffffffff168173ffffffffffffffffffffffffffffffffffffffff167f8be0079c531659141344cd1fd0a4f28419497f9722a3daafe3b4186f6b6457e060405160405180910390a35050565b828054620001b49062000285565b90600052602060002090601f016020900481019282620001d8576000855562000224565b82601f10620001f357805160ff191683800117855562000224565b8280016001018555821562000224579182015b828111156200022357825182559160200191906001019062000206565b5b50905062000233919062000237565b5090565b5b808211156200025257600081600090555060010162000238565b5090565b7f4e487b7100000000000000000000000000000000000000000000000000000000600052602260045260246000fd5b600060028204905060018216806200029e57607f821691505b60208210811415620002b557620002b462000256565b5b50919050565b61306b80620002cb6000396000f3fe608060405234801561001057600080fd5b506004361061010b5760003560e01c806370a08231116100a2578063a22cb46511610071578063a22cb465146102b8578063b88d4fde146102d4578063c87b56dd146102f0578063e985e9c514610320578063f2fde38b146103505761010b565b806370a0823114610242578063715018a6146102725780638da5cb5b1461027c57806395d89b411461029a5761010b565b8063110bcd45116100de578063110bcd45146101aa57806323b872dd146101da57806342842e0e146101f65780636352211e146102125761010b565b806301ffc9a71461011057806306fdde0314610140578063081812fc1461015e578063095ea7b31461018e575b600080fd5b61012a60048036038101906101259190611ccf565b61036c565b6040516101379190611d17565b60405180910390f35b61014861044e565b6040516101559190611dcb565b60405180910390f35b61017860048036038101906101739190611e23565b6104e0565b6040516101859190611e91565b60405180910390f35b6101a860048036038101906101a39190611ed8565b610565565b005b6101c460048036038101906101bf919061204d565b61067d565b6040516101d191906120b8565b60405180910390f35b6101f460048036038101906101ef91906120d3565b610731565b005b610210600480360381019061020b91906120d3565b610791565b005b61022c60048036038101906102279190611e23565b6107b1565b6040516102399190611e91565b60405180910390f35b61025c60048036038101906102579190612126565b610863565b60405161026991906120b8565b60405180910390f35b61027a61091b565b005b6102846109a3565b6040516102919190611e91565b60405180910390f35b6102a26109cd565b6040516102af9190611dcb565b60405180910390f35b6102d260048036038101906102cd919061217f565b610a5f565b005b6102ee60048036038101906102e99190612260565b610be0565b005b61030a60048036038101906103059190611e23565b610c42565b6040516103179190611dcb565b60405180910390f35b61033a600480360381019061033591906122e3565b610d94565b6040516103479190611d17565b60405180910390f35b61036a60048036038101906103659190612126565b610e28565b005b60007f80ac58cd000000000000000000000000000000000000000000000000000000007bffffffffffffffffffffffffffffffffffffffffffffffffffffffff1916827bffffffffffffffffffffffffffffffffffffffffffffffffffffffff1916148061043757507f5b5e139f000000000000000000000000000000000000000000000000000000007bffffffffffffffffffffffffffffffffffffffffffffffffffffffff1916827bffffffffffffffffffffffffffffffffffffffffffffffffffffffff1916145b80610447575061044682610f20565b5b9050919050565b60606000805461045d90612352565b80601f016020809104026020016040519081016040528092919081815260200182805461048990612352565b80156104d65780601f106104ab576101008083540402835291602001916104d6565b820191906000526020600020905b8154815290600101906020018083116104b957829003601f168201915b5050505050905090565b60006104eb82610f8a565b61052a576040517f08c379a0000000000000000000000000000000000000000000000000000000008152600401610521906123f6565b60405180910390fd5b6004600083815260200190815260200160002060009054906101000a900473ffffffffffffffffffffffffffffffffffffffff169050919050565b6000610570826107b1565b90508073ffffffffffffffffffffffffffffffffffffffff168373ffffffffffffffffffffffffffffffffffffffff1614156105e1576040517f08c379a00000000000000000000000000000000000000000000000000000000081526004016105d890612488565b60405180910390fd5b8073ffffffffffffffffffffffffffffffffffffffff16610600610ff6565b73ffffffffffffffffffffffffffffffffffffffff16148061062f575061062e81610629610ff6565b610d94565b5b61066e576040517f08c379a00000000000000000000000000000000000000000000000000000000081526004016106659061251a565b60405180910390fd5b6106788383610ffe565b505050565b6000610687610ff6565b73ffffffffffffffffffffffffffffffffffffffff166106a56109a3565b73ffffffffffffffffffffffffffffffffffffffff16146106fb576040517f08c379a00000000000000000000000000000000000000000000000000000000081526004016106f290612586565b60405180910390fd5b61070560086110b7565b600061071160086110cd565b905061071d84826110db565b61072781846110f9565b8091505092915050565b61074261073c610ff6565b8261116d565b610781576040517f08c379a000000000000000000000000000000000000000000000000000000000815260040161077890612618565b60405180910390fd5b61078c83838361124b565b505050565b6107ac83838360405180602001604052806000815250610be0565b505050565b6000806002600084815260200190815260200160002060009054906101000a900473ffffffffffffffffffffffffffffffffffffffff169050600073ffffffffffffffffffffffffffffffffffffffff168173ffffffffffffffffffffffffffffffffffffffff16141561085a576040517f08c379a0000000000000000000000000000000000000000000000000000000008152600401610851906126aa565b60405180910390fd5b80915050919050565b60008073ffffffffffffffffffffffffffffffffffffffff168273ffffffffffffffffffffffffffffffffffffffff1614156108d4576040517f08c379a00000000000000000000000000000000000000000000000000000000081526004016108cb9061273c565b60405180910390fd5b600360008373ffffffffffffffffffffffffffffffffffffffff1673ffffffffffffffffffffffffffffffffffffffff168152602001908152602001600020549050919050565b610923610ff6565b73ffffffffffffffffffffffffffffffffffffffff166109416109a3565b73ffffffffffffffffffffffffffffffffffffffff1614610997576040517f08c379a000000000000000000000000000000000000000000000000000000000815260040161098e90612586565b60405180910390fd5b6109a160006114a7565b565b6000600760009054906101000a900473ffffffffffffffffffffffffffffffffffffffff16905090565b6060600180546109dc90612352565b80601f0160208091040260200160405190810160405280929190818152602001828054610a0890612352565b8015610a555780601f10610a2a57610100808354040283529160200191610a55565b820191906000526020600020905b815481529060010190602001808311610a3857829003601f168201915b5050505050905090565b610a67610ff6565b73ffffffffffffffffffffffffffffffffffffffff168273ffffffffffffffffffffffffffffffffffffffff161415610ad5576040517f08c379a0000000000000000000000000000000000000000000000000000000008152600401610acc906127a8565b60405180910390fd5b8060056000610ae2610ff6565b73ffffffffffffffffffffffffffffffffffffffff1673ffffffffffffffffffffffffffffffffffffffff16815260200190815260200160002060008473ffffffffffffffffffffffffffffffffffffffff1673ffffffffffffffffffffffffffffffffffffffff16815260200190815260200160002060006101000a81548160ff0219169083151502179055508173ffffffffffffffffffffffffffffffffffffffff16610b8f610ff6565b73ffffffffffffffffffffffffffffffffffffffff167f17307eab39ab6107e8899845ad3d59bd9653f200f220920489ca2b5937696c3183604051610bd49190611d17565b60405180910390a35050565b610bf1610beb610ff6565b8361116d565b610c30576040517f08c379a0000000000000000000000000000000000000000000000000000000008152600401610c2790612618565b60405180910390fd5b610c3c8484848461156d565b50505050565b6060610c4d82610f8a565b610c8c576040517f08c379a0000000000000000000000000000000000000000000000000000000008152600401610c839061283a565b60405180910390fd5b6000600660008481526020019081526020016000208054610cac90612352565b80601f0160208091040260200160405190810160405280929190818152602001828054610cd890612352565b8015610d255780601f10610cfa57610100808354040283529160200191610d25565b820191906000526020600020905b815481529060010190602001808311610d0857829003601f168201915b505050505090506000610d366115c9565b9050600081511415610d4c578192505050610d8f565b600082511115610d81578082604051602001610d69929190612896565b60405160208183030381529060405292505050610d8f565b610d8a846115e0565b925050505b919050565b6000600560008473ffffffffffffffffffffffffffffffffffffffff1673ffffffffffffffffffffffffffffffffffffffff16815260200190815260200160002060008373ffffffffffffffffffffffffffffffffffffffff1673ffffffffffffffffffffffffffffffffffffffff16815260200190815260200160002060009054906101000a900460ff16905092915050565b610e30610ff6565b73ffffffffffffffffffffffffffffffffffffffff16610e4e6109a3565b73ffffffffffffffffffffffffffffffffffffffff1614610ea4576040517f08c379a0000000000000000000000000000000000000000000000000000000008152600401610e9b90612586565b60405180910390fd5b600073ffffffffffffffffffffffffffffffffffffffff168173ffffffffffffffffffffffffffffffffffffffff161415610f14576040517f08c379a0000000000000000000000000000000000000000000000000000000008152600401610f0b9061292c565b60405180910390fd5b610f1d816114a7565b50565b60007f01ffc9a7000000000000000000000000000000000000000000000000000000007bffffffffffffffffffffffffffffffffffffffffffffffffffffffff1916827bffffffffffffffffffffffffffffffffffffffffffffffffffffffff1916149050919050565b60008073ffffffffffffffffffffffffffffffffffffffff166002600084815260200190815260200160002060009054906101000a900473ffffffffffffffffffffffffffffffffffffffff1673ffffffffffffffffffffffffffffffffffffffff1614159050919050565b600033905090565b816004600083815260200190815260200160002060006101000a81548173ffffffffffffffffffffffffffffffffffffffff021916908373ffffffffffffffffffffffffffffffffffffffff160217905550808273ffffffffffffffffffffffffffffffffffffffff16611071836107b1565b73ffffffffffffffffffffffffffffffffffffffff167f8c5be1e5ebec7d5bd14f71427d1e84f3dd0314c0f7b2291e5b200ac8c7c3b92560405160405180910390a45050565b6001816000016000828254019250508190555050565b600081600001549050919050565b6110f5828260405180602001604052806000815250611687565b5050565b61110282610f8a565b611141576040517f08c379a0000000000000000000000000000000000000000000000000000000008152600401611138906129be565b60405180910390fd5b80600660008481526020019081526020016000209080519060200190611168929190611bc0565b505050565b600061117882610f8a565b6111b7576040517f08c379a00000000000000000000000000000000000000000000000000000000081526004016111ae90612a50565b60405180910390fd5b60006111c2836107b1565b90508073ffffffffffffffffffffffffffffffffffffffff168473ffffffffffffffffffffffffffffffffffffffff16148061123157508373ffffffffffffffffffffffffffffffffffffffff16611219846104e0565b73ffffffffffffffffffffffffffffffffffffffff16145b8061124257506112418185610d94565b5b91505092915050565b8273ffffffffffffffffffffffffffffffffffffffff1661126b826107b1565b73ffffffffffffffffffffffffffffffffffffffff16146112c1576040517f08c379a00000000000000000000000000000000000000000000000000000000081526004016112b890612ae2565b60405180910390fd5b600073ffffffffffffffffffffffffffffffffffffffff168273ffffffffffffffffffffffffffffffffffffffff161415611331576040517f08c379a000000000000000000000000000000000000000000000000000000000815260040161132890612b74565b60405180910390fd5b61133c8383836116e2565b611347600082610ffe565b6001600360008573ffffffffffffffffffffffffffffffffffffffff1673ffffffffffffffffffffffffffffffffffffffff16815260200190815260200160002060008282546113979190612bc3565b925050819055506001600360008473ffffffffffffffffffffffffffffffffffffffff1673ffffffffffffffffffffffffffffffffffffffff16815260200190815260200160002060008282546113ee9190612bf7565b92505081905550816002600083815260200190815260200160002060006101000a81548173ffffffffffffffffffffffffffffffffffffffff021916908373ffffffffffffffffffffffffffffffffffffffff160217905550808273ffffffffffffffffffffffffffffffffffffffff168473ffffffffffffffffffffffffffffffffffffffff167fddf252ad1be2c89b69c2b068fc378daa952ba7f163c4a11628f55a4df523b3ef60405160405180910390a4505050565b6000600760009054906101000a900473ffffffffffffffffffffffffffffffffffffffff16905081600760006101000a81548173ffffffffffffffffffffffffffffffffffffffff021916908373ffffffffffffffffffffffffffffffffffffffff1602179055508173ffffffffffffffffffffffffffffffffffffffff168173ffffffffffffffffffffffffffffffffffffffff167f8be0079c531659141344cd1fd0a4f28419497f9722a3daafe3b4186f6b6457e060405160405180910390a35050565b61157884848461124b565b611584848484846116e7565b6115c3576040517f08c379a00000000000000000000000000000000000000000000000000000000081526004016115ba90612cbf565b60405180910390fd5b50505050565b606060405180602001604052806000815250905090565b60606115eb82610f8a565b61162a576040517f08c379a000000000000000000000000000000000000000000000000000000000815260040161162190612d51565b60405180910390fd5b60006116346115c9565b90506000815111611654576040518060200160405280600081525061167f565b8061165e8461187e565b60405160200161166f929190612896565b6040516020818303038152906040525b915050919050565b61169183836119df565b61169e60008484846116e7565b6116dd576040517f08c379a00000000000000000000000000000000000000000000000000000000081526004016116d490612cbf565b60405180910390fd5b505050565b505050565b60006117088473ffffffffffffffffffffffffffffffffffffffff16611bad565b15611871578373ffffffffffffffffffffffffffffffffffffffff1663150b7a02611731610ff6565b8786866040518563ffffffff1660e01b81526004016117539493929190612dc6565b602060405180830381600087803b15801561176d57600080fd5b505af192505050801561179e57506040513d601f19601f8201168201806040525081019061179b9190612e27565b60015b611821573d80600081146117ce576040519150601f19603f3d011682016040523d82523d6000602084013e6117d3565b606091505b50600081511415611819576040517f08c379a000000000000000000000000000000000000000000000000000000000815260040161181090612cbf565b60405180910390fd5b805181602001fd5b63150b7a0260e01b7bffffffffffffffffffffffffffffffffffffffffffffffffffffffff1916817bffffffffffffffffffffffffffffffffffffffffffffffffffffffff191614915050611876565b600190505b949350505050565b606060008214156118c6576040518060400160405280600181526020017f300000000000000000000000000000000000000000000000000000000000000081525090506119da565b600082905060005b600082146118f85780806118e190612e54565b915050600a826118f19190612ecc565b91506118ce565b60008167ffffffffffffffff81111561191457611913611f22565b5b6040519080825280601f01601f1916602001820160405280156119465781602001600182028036833780820191505090505b5090505b600085146119d35760018261195f9190612bc3565b9150600a8561196e9190612efd565b603061197a9190612bf7565b60f81b8183815181106119905761198f612f2e565b5b60200101907effffffffffffffffffffffffffffffffffffffffffffffffffffffffffffff1916908160001a905350600a856119cc9190612ecc565b945061194a565b8093505050505b919050565b600073ffffffffffffffffffffffffffffffffffffffff168273ffffffffffffffffffffffffffffffffffffffff161415611a4f576040517f08c379a0000000000000000000000000000000000000000000000000000000008152600401611a4690612fa9565b60405180910390fd5b611a5881610f8a565b15611a98576040517f08c379a0000000000000000000000000000000000000000000000000000000008152600401611a8f90613015565b60405180910390fd5b611aa4600083836116e2565b6001600360008473ffffffffffffffffffffffffffffffffffffffff1673ffffffffffffffffffffffffffffffffffffffff1681526020019081526020016000206000828254611af49190612bf7565b92505081905550816002600083815260200190815260200160002060006101000a81548173ffffffffffffffffffffffffffffffffffffffff021916908373ffffffffffffffffffffffffffffffffffffffff160217905550808273ffffffffffffffffffffffffffffffffffffffff16600073ffffffffffffffffffffffffffffffffffffffff167fddf252ad1be2c89b69c2b068fc378daa952ba7f163c4a11628f55a4df523b3ef60405160405180910390a45050565b600080823b905060008111915050919050565b828054611bcc90612352565b90600052602060002090601f016020900481019282611bee5760008555611c35565b82601f10611c0757805160ff1916838001178555611c35565b82800160010185558215611c35579182015b82811115611c34578251825591602001919060010190611c19565b5b509050611c429190611c46565b5090565b5b80821115611c5f576000816000905550600101611c47565b5090565b6000604051905090565b600080fd5b600080fd5b60007fffffffff0000000000000000000000000000000000000000000000000000000082169050919050565b611cac81611c77565b8114611cb757600080fd5b50565b600081359050611cc981611ca3565b92915050565b600060208284031215611ce557611ce4611c6d565b5b6000611cf384828501611cba565b91505092915050565b60008115159050919050565b611d1181611cfc565b82525050565b6000602082019050611d2c6000830184611d08565b92915050565b600081519050919050565b600082825260208201905092915050565b60005b83811015611d6c578082015181840152602081019050611d51565b83811115611d7b576000848401525b50505050565b6000601f19601f8301169050919050565b6000611d9d82611d32565b611da78185611d3d565b9350611db7818560208601611d4e565b611dc081611d81565b840191505092915050565b60006020820190508181036000830152611de58184611d92565b905092915050565b6000819050919050565b611e0081611ded565b8114611e0b57600080fd5b50565b600081359050611e1d81611df7565b92915050565b600060208284031215611e3957611e38611c6d565b5b6000611e4784828501611e0e565b91505092915050565b600073ffffffffffffffffffffffffffffffffffffffff82169050919050565b6000611e7b82611e50565b9050919050565b611e8b81611e70565b82525050565b6000602082019050611ea66000830184611e82565b92915050565b611eb581611e70565b8114611ec057600080fd5b50565b600081359050611ed281611eac565b92915050565b60008060408385031215611eef57611eee611c6d565b5b6000611efd85828601611ec3565b9250506020611f0e85828601611e0e565b9150509250929050565b600080fd5b600080fd5b7f4e487b7100000000000000000000000000000000000000000000000000000000600052604160045260246000fd5b611f5a82611d81565b810181811067ffffffffffffffff82111715611f7957611f78611f22565b5b80604052505050565b6000611f8c611c63565b9050611f988282611f51565b919050565b600067ffffffffffffffff821115611fb857611fb7611f22565b5b611fc182611d81565b9050602081019050919050565b82818337600083830152505050565b6000611ff0611feb84611f9d565b611f82565b90508281526020810184848401111561200c5761200b611f1d565b5b612017848285611fce565b509392505050565b600082601f83011261203457612033611f18565b5b8135612044848260208601611fdd565b91505092915050565b6000806040838503121561206457612063611c6d565b5b600061207285828601611ec3565b925050602083013567ffffffffffffffff81111561209357612092611c72565b5b61209f8582860161201f565b9150509250929050565b6120b281611ded565b82525050565b60006020820190506120cd60008301846120a9565b92915050565b6000806000606084860312156120ec576120eb611c6d565b5b60006120fa86828701611ec3565b935050602061210b86828701611ec3565b925050604061211c86828701611e0e565b9150509250925092565b60006020828403121561213c5761213b611c6d565b5b600061214a84828501611ec3565b91505092915050565b61215c81611cfc565b811461216757600080fd5b50565b60008135905061217981612153565b92915050565b6000806040838503121561219657612195611c6d565b5b60006121a485828601611ec3565b92505060206121b58582860161216a565b9150509250929050565b600067ffffffffffffffff8211156121da576121d9611f22565b5b6121e382611d81565b9050602081019050919050565b60006122036121fe846121bf565b611f82565b90508281526020810184848401111561221f5761221e611f1d565b5b61222a848285611fce565b509392505050565b600082601f83011261224757612246611f18565b5b81356122578482602086016121f0565b91505092915050565b6000806000806080858703121561227a57612279611c6d565b5b600061228887828801611ec3565b945050602061229987828801611ec3565b93505060406122aa87828801611e0e565b925050606085013567ffffffffffffffff8111156122cb576122ca611c72565b5b6122d787828801612232565b91505092959194509250565b600080604083850312156122fa576122f9611c6d565b5b600061230885828601611ec3565b925050602061231985828601611ec3565b9150509250929050565b7f4e487b7100000000000000000000000000000000000000000000000000000000600052602260045260246000fd5b6000600282049050600182168061236a57607f821691505b6020821081141561237e5761237d612323565b5b50919050565b7f4552433732313a20617070726f76656420717565727920666f72206e6f6e657860008201527f697374656e7420746f6b656e0000000000000000000000000000000000000000602082015250565b60006123e0602c83611d3d565b91506123eb82612384565b604082019050919050565b6000602082019050818103600083015261240f816123d3565b9050919050565b7f4552433732313a20617070726f76616c20746f2063757272656e74206f776e6560008201527f7200000000000000000000000000000000000000000000000000000000000000602082015250565b6000612472602183611d3d565b915061247d82612416565b604082019050919050565b600060208201905081810360008301526124a181612465565b9050919050565b7f4552433732313a20617070726f76652063616c6c6572206973206e6f74206f7760008201527f6e6572206e6f7220617070726f76656420666f7220616c6c0000000000000000602082015250565b6000612504603883611d3d565b915061250f826124a8565b604082019050919050565b60006020820190508181036000830152612533816124f7565b9050919050565b7f4f776e61626c653a2063616c6c6572206973206e6f7420746865206f776e6572600082015250565b6000612570602083611d3d565b915061257b8261253a565b602082019050919050565b6000602082019050818103600083015261259f81612563565b9050919050565b7f4552433732313a207472616e736665722063616c6c6572206973206e6f74206f60008201527f776e6572206e6f7220617070726f766564000000000000000000000000000000602082015250565b6000612602603183611d3d565b915061260d826125a6565b604082019050919050565b60006020820190508181036000830152612631816125f5565b9050919050565b7f4552433732313a206f776e657220717565727920666f72206e6f6e657869737460008201527f656e7420746f6b656e0000000000000000000000000000000000000000000000602082015250565b6000612694602983611d3d565b915061269f82612638565b604082019050919050565b600060208201905081810360008301526126c381612687565b9050919050565b7f4552433732313a2062616c616e636520717565727920666f7220746865207a6560008201527f726f206164647265737300000000000000000000000000000000000000000000602082015250565b6000612726602a83611d3d565b9150612731826126ca565b604082019050919050565b6000602082019050818103600083015261275581612719565b9050919050565b7f4552433732313a20617070726f766520746f2063616c6c657200000000000000600082015250565b6000612792601983611d3d565b915061279d8261275c565b602082019050919050565b600060208201905081810360008301526127c181612785565b9050919050565b7f45524337323155524953746f726167653a2055524920717565727920666f722060008201527f6e6f6e6578697374656e7420746f6b656e000000000000000000000000000000602082015250565b6000612824603183611d3d565b915061282f826127c8565b604082019050919050565b6000602082019050818103600083015261285381612817565b9050919050565b600081905092915050565b600061287082611d32565b61287a818561285a565b935061288a818560208601611d4e565b80840191505092915050565b60006128a28285612865565b91506128ae8284612865565b91508190509392505050565b7f4f776e61626c653a206e6577206f776e657220697320746865207a65726f206160008201527f6464726573730000000000000000000000000000000000000000000000000000602082015250565b6000612916602683611d3d565b9150612921826128ba565b604082019050919050565b6000602082019050818103600083015261294581612909565b9050919050565b7f45524337323155524953746f726167653a2055524920736574206f66206e6f6e60008201527f6578697374656e7420746f6b656e000000000000000000000000000000000000602082015250565b60006129a8602e83611d3d565b91506129b38261294c565b604082019050919050565b600060208201905081810360008301526129d78161299b565b9050919050565b7f4552433732313a206f70657261746f7220717565727920666f72206e6f6e657860008201527f697374656e7420746f6b656e0000000000000000000000000000000000000000602082015250565b6000612a3a602c83611d3d565b9150612a45826129de565b604082019050919050565b60006020820190508181036000830152612a6981612a2d565b9050919050565b7f4552433732313a207472616e73666572206f6620746f6b656e2074686174206960008201527f73206e6f74206f776e0000000000000000000000000000000000000000000000602082015250565b6000612acc602983611d3d565b9150612ad782612a70565b604082019050919050565b60006020820190508181036000830152612afb81612abf565b9050919050565b7f4552433732313a207472616e7366657220746f20746865207a65726f2061646460008201527f7265737300000000000000000000000000000000000000000000000000000000602082015250565b6000612b5e602483611d3d565b9150612b6982612b02565b604082019050919050565b60006020820190508181036000830152612b8d81612b51565b9050919050565b7f4e487b7100000000000000000000000000000000000000000000000000000000600052601160045260246000fd5b6000612bce82611ded565b9150612bd983611ded565b925082821015612bec57612beb612b94565b5b828203905092915050565b6000612c0282611ded565b9150612c0d83611ded565b9250827fffffffffffffffffffffffffffffffffffffffffffffffffffffffffffffffff03821115612c4257612c41612b94565b5b828201905092915050565b7f4552433732313a207472616e7366657220746f206e6f6e20455243373231526560008201527f63656976657220696d706c656d656e7465720000000000000000000000000000602082015250565b6000612ca9603283611d3d565b9150612cb482612c4d565b604082019050919050565b60006020820190508181036000830152612cd881612c9c565b9050919050565b7f4552433732314d657461646174613a2055524920717565727920666f72206e6f60008201527f6e6578697374656e7420746f6b656e0000000000000000000000000000000000602082015250565b6000612d3b602f83611d3d565b9150612d4682612cdf565b604082019050919050565b60006020820190508181036000830152612d6a81612d2e565b9050919050565b600081519050919050565b600082825260208201905092915050565b6000612d9882612d71565b612da28185612d7c565b9350612db2818560208601611d4e565b612dbb81611d81565b840191505092915050565b6000608082019050612ddb6000830187611e82565b612de86020830186611e82565b612df560408301856120a9565b8181036060830152612e078184612d8d565b905095945050505050565b600081519050612e2181611ca3565b92915050565b600060208284031215612e3d57612e3c611c6d565b5b6000612e4b84828501612e12565b91505092915050565b6000612e5f82611ded565b91507fffffffffffffffffffffffffffffffffffffffffffffffffffffffffffffffff821415612e9257612e91612b94565b5b600182019050919050565b7f4e487b7100000000000000000000000000000000000000000000000000000000600052601260045260246000fd5b6000612ed782611ded565b9150612ee283611ded565b925082612ef257612ef1612e9d565b5b828204905092915050565b6000612f0882611ded565b9150612f1383611ded565b925082612f2357612f22612e9d565b5b828206905092915050565b7f4e487b7100000000000000000000000000000000000000000000000000000000600052603260045260246000fd5b7f4552433732313a206d696e7420746f20746865207a65726f2061646472657373600082015250565b6000612f93602083611d3d565b9150612f9e82612f5d565b602082019050919050565b60006020820190508181036000830152612fc281612f86565b9050919050565b7f4552433732313a20746f6b656e20616c7265616479206d696e74656400000000600082015250565b6000612fff601c83611d3d565b915061300a82612fc9565b602082019050919050565b6000602082019050818103600083015261302e81612ff2565b905091905056fea2646970667358221220aa457f4bea3494b52f62d03a6c223b8e374333814855a9f241285a31e37b05a264736f6c63430008090033",
  "immutableReferences": {},
  "source": "pragma solidity ^0.8.0;\n//SPDX-License-Identifier: MIT\n\nimport \"@openzeppelin/contracts/token/ERC721/extensions/ERC721URIStorage.sol\";\nimport \"@openzeppelin/contracts/utils/Counters.sol\";\nimport \"@openzeppelin/contracts/access/Ownable.sol\";\n\n//learn more: https://docs.openzeppelin.com/contracts/3.x/erc721\n\n// GET LISTED ON OPENSEA: https://testnets.opensea.io/get-listed/step-two\n\ncontract Gremlin is ERC721URIStorage, Ownable {\n  using Counters for Counters.Counter;\n  Counters.Counter private _tokenIds;\n\n  constructor() ERC721(\"Gremlin\", \"GRE\") {}\n\n  function mintItem(address to, string memory tokenURI) public onlyOwner returns (uint256) {\n    _tokenIds.increment();\n\n    uint256 id = _tokenIds.current();\n\n    _safeMint(to, id);\n    _setTokenURI(id, tokenURI);\n\n    return id;\n  }\n}\n",
  "sourcePath": "/Users/duxiaofeng/code/gremlin/contracts/Gremlin.sol",
  "compiler": {
    "name": "solc",
    "version": "0.8.9+commit.e5eed63a.Darwin.appleclang"
  },
  "schemaVersion": "3.4.3",
  "updatedAt": "2021-11-04T20:18:29.025Z",
  "networkType": "ethereum",
  "devdoc": {
    "kind": "dev",
    "methods": {
      "approve(address,uint256)": {
        "details": "See {IERC721-approve}."
      },
      "balanceOf(address)": {
        "details": "See {IERC721-balanceOf}."
      },
      "getApproved(uint256)": {
        "details": "See {IERC721-getApproved}."
      },
      "isApprovedForAll(address,address)": {
        "details": "See {IERC721-isApprovedForAll}."
      },
      "name()": {
        "details": "See {IERC721Metadata-name}."
      },
      "owner()": {
        "details": "Returns the address of the current owner."
      },
      "ownerOf(uint256)": {
        "details": "See {IERC721-ownerOf}."
      },
      "renounceOwnership()": {
        "details": "Leaves the contract without owner. It will not be possible to call `onlyOwner` functions anymore. Can only be called by the current owner. NOTE: Renouncing ownership will leave the contract without an owner, thereby removing any functionality that is only available to the owner."
      },
      "safeTransferFrom(address,address,uint256)": {
        "details": "See {IERC721-safeTransferFrom}."
      },
      "safeTransferFrom(address,address,uint256,bytes)": {
        "details": "See {IERC721-safeTransferFrom}."
      },
      "setApprovalForAll(address,bool)": {
        "details": "See {IERC721-setApprovalForAll}."
      },
      "supportsInterface(bytes4)": {
        "details": "See {IERC165-supportsInterface}."
      },
      "symbol()": {
        "details": "See {IERC721Metadata-symbol}."
      },
      "tokenURI(uint256)": {
        "details": "See {IERC721Metadata-tokenURI}."
      },
      "transferFrom(address,address,uint256)": {
        "details": "See {IERC721-transferFrom}."
      },
      "transferOwnership(address)": {
        "details": "Transfers ownership of the contract to a new account (`newOwner`). Can only be called by the current owner."
      }
    },
    "version": 1
  },
  "userdoc": {
    "kind": "user",
    "methods": {},
    "version": 1
  }
}