{
  "contractName": "Gremlin",
  "abi": [
    {
      "inputs": [],
      "stateMutability": "nonpayable",
      "type": "constructor"
    },
    {
      "anonymous": false,
      "inputs": [
        {
          "indexed": true,
          "internalType": "address",
          "name": "owner",
          "type": "address"
        },
        {
          "indexed": true,
          "internalType": "address",
          "name": "approved",
          "type": "address"
        },
        {
          "indexed": true,
          "internalType": "uint256",
          "name": "tokenId",
          "type": "uint256"
        }
      ],
      "name": "Approval",
      "type": "event"
    },
    {
      "anonymous": false,
      "inputs": [
        {
          "indexed": true,
          "internalType": "address",
          "name": "owner",
          "type": "address"
        },
        {
          "indexed": true,
          "internalType": "address",
          "name": "operator",
          "type": "address"
        },
        {
          "indexed": false,
          "internalType": "bool",
          "name": "approved",
          "type": "bool"
        }
      ],
      "name": "ApprovalForAll",
      "type": "event"
    },
    {
      "anonymous": false,
      "inputs": [
        {
          "indexed": true,
          "internalType": "address",
          "name": "from",
          "type": "address"
        },
        {
          "indexed": true,
          "internalType": "address",
          "name": "to",
          "type": "address"
        },
        {
          "indexed": true,
          "internalType": "uint256",
          "name": "tokenId",
          "type": "uint256"
        }
      ],
      "name": "Transfer",
      "type": "event"
    },
    {
      "inputs": [
        {
          "internalType": "address",
          "name": "to",
          "type": "address"
        },
        {
          "internalType": "uint256",
          "name": "tokenId",
          "type": "uint256"
        }
      ],
      "name": "approve",
      "outputs": [],
      "stateMutability": "nonpayable",
      "type": "function"
    },
    {
      "inputs": [
        {
          "internalType": "address",
          "name": "owner",
          "type": "address"
        }
      ],
      "name": "balanceOf",
      "outputs": [
        {
          "internalType": "uint256",
          "name": "",
          "type": "uint256"
        }
      ],
      "stateMutability": "view",
      "type": "function",
      "constant": true
    },
    {
      "inputs": [
        {
          "internalType": "uint256",
          "name": "tokenId",
          "type": "uint256"
        }
      ],
      "name": "getApproved",
      "outputs": [
        {
          "internalType": "address",
          "name": "",
          "type": "address"
        }
      ],
      "stateMutability": "view",
      "type": "function",
      "constant": true
    },
    {
      "inputs": [
        {
          "internalType": "address",
          "name": "owner",
          "type": "address"
        },
        {
          "internalType": "address",
          "name": "operator",
          "type": "address"
        }
      ],
      "name": "isApprovedForAll",
      "outputs": [
        {
          "internalType": "bool",
          "name": "",
          "type": "bool"
        }
      ],
      "stateMutability": "view",
      "type": "function",
      "constant": true
    },
    {
      "inputs": [],
      "name": "name",
      "outputs": [
        {
          "internalType": "string",
          "name": "",
          "type": "string"
        }
      ],
      "stateMutability": "view",
      "type": "function",
      "constant": true
    },
    {
      "inputs": [
        {
          "internalType": "uint256",
          "name": "tokenId",
          "type": "uint256"
        }
      ],
      "name": "ownerOf",
      "outputs": [
        {
          "internalType": "address",
          "name": "",
          "type": "address"
        }
      ],
      "stateMutability": "view",
      "type": "function",
      "constant": true
    },
    {
      "inputs": [
        {
          "internalType": "address",
          "name": "from",
          "type": "address"
        },
        {
          "internalType": "address",
          "name": "to",
          "type": "address"
        },
        {
          "internalType": "uint256",
          "name": "tokenId",
          "type": "uint256"
        }
      ],
      "name": "safeTransferFrom",
      "outputs": [],
      "stateMutability": "nonpayable",
      "type": "function"
    },
    {
      "inputs": [
        {
          "internalType": "address",
          "name": "from",
          "type": "address"
        },
        {
          "internalType": "address",
          "name": "to",
          "type": "address"
        },
        {
          "internalType": "uint256",
          "name": "tokenId",
          "type": "uint256"
        },
        {
          "internalType": "bytes",
          "name": "_data",
          "type": "bytes"
        }
      ],
      "name": "safeTransferFrom",
      "outputs": [],
      "stateMutability": "nonpayable",
      "type": "function"
    },
    {
      "inputs": [
        {
          "internalType": "address",
          "name": "operator",
          "type": "address"
        },
        {
          "internalType": "bool",
          "name": "approved",
          "type": "bool"
        }
      ],
      "name": "setApprovalForAll",
      "outputs": [],
      "stateMutability": "nonpayable",
      "type": "function"
    },
    {
      "inputs": [],
      "name": "symbol",
      "outputs": [
        {
          "internalType": "string",
          "name": "",
          "type": "string"
        }
      ],
      "stateMutability": "view",
      "type": "function",
      "constant": true
    },
    {
      "inputs": [
        {
          "internalType": "uint256",
          "name": "index",
          "type": "uint256"
        }
      ],
      "name": "tokenByIndex",
      "outputs": [
        {
          "internalType": "uint256",
          "name": "",
          "type": "uint256"
        }
      ],
      "stateMutability": "view",
      "type": "function",
      "constant": true
    },
    {
      "inputs": [
        {
          "internalType": "address",
          "name": "owner",
          "type": "address"
        },
        {
          "internalType": "uint256",
          "name": "index",
          "type": "uint256"
        }
      ],
      "name": "tokenOfOwnerByIndex",
      "outputs": [
        {
          "internalType": "uint256",
          "name": "",
          "type": "uint256"
        }
      ],
      "stateMutability": "view",
      "type": "function",
      "constant": true
    },
    {
      "inputs": [],
      "name": "totalSupply",
      "outputs": [
        {
          "internalType": "uint256",
          "name": "",
          "type": "uint256"
        }
      ],
      "stateMutability": "view",
      "type": "function",
      "constant": true
    },
    {
      "inputs": [
        {
          "internalType": "address",
          "name": "from",
          "type": "address"
        },
        {
          "internalType": "address",
          "name": "to",
          "type": "address"
        },
        {
          "internalType": "uint256",
          "name": "tokenId",
          "type": "uint256"
        }
      ],
      "name": "transferFrom",
      "outputs": [],
      "stateMutability": "nonpayable",
      "type": "function"
    },
    {
      "inputs": [
        {
          "internalType": "bytes4",
          "name": "interfaceId",
          "type": "bytes4"
        }
      ],
      "name": "supportsInterface",
      "outputs": [
        {
          "internalType": "bool",
          "name": "",
          "type": "bool"
        }
      ],
      "stateMutability": "view",
      "type": "function",
      "constant": true
    },
    {
      "inputs": [
        {
          "internalType": "uint256",
          "name": "tokenId",
          "type": "uint256"
        }
      ],
      "name": "tokenURI",
      "outputs": [
        {
          "internalType": "string",
          "name": "",
          "type": "string"
        }
      ],
      "stateMutability": "view",
      "type": "function",
      "constant": true
    },
    {
      "inputs": [
        {
          "internalType": "address",
          "name": "to",
          "type": "address"
        },
        {
          "internalType": "string",
          "name": "tokenUri",
          "type": "string"
        }
      ],
      "name": "mintItem",
      "outputs": [
        {
          "internalType": "uint256",
          "name": "",
          "type": "uint256"
        }
      ],
      "stateMutability": "nonpayable",
      "type": "function"
    }
  ],
  "bytecode": "0x60806040523480156200001157600080fd5b506040518060400160405280600781526020017f4772656d6c696e000000000000000000000000000000000000000000000000008152506040518060400160405280600381526020017f4752450000000000000000000000000000000000000000000000000000000000815250816000908051906020019062000096929190620000b8565b508060019080519060200190620000af929190620000b8565b505050620001cd565b828054620000c69062000197565b90600052602060002090601f016020900481019282620000ea576000855562000136565b82601f106200010557805160ff191683800117855562000136565b8280016001018555821562000136579182015b828111156200013557825182559160200191906001019062000118565b5b50905062000145919062000149565b5090565b5b80821115620001645760008160009055506001016200014a565b5090565b7f4e487b7100000000000000000000000000000000000000000000000000000000600052602260045260246000fd5b60006002820490506001821680620001b057607f821691505b60208210811415620001c757620001c662000168565b5b50919050565b6133f980620001dd6000396000f3fe608060405234801561001057600080fd5b506004361061010b5760003560e01c806342842e0e116100a257806395d89b411161007157806395d89b41146102f0578063a22cb4651461030e578063b88d4fde1461032a578063c87b56dd14610346578063e985e9c5146103765761010b565b806342842e0e146102445780634f6ccce7146102605780636352211e1461029057806370a08231146102c05761010b565b8063110bcd45116100de578063110bcd45146101aa57806318160ddd146101da57806323b872dd146101f85780632f745c59146102145761010b565b806301ffc9a71461011057806306fdde0314610140578063081812fc1461015e578063095ea7b31461018e575b600080fd5b61012a60048036038101906101259190612008565b6103a6565b6040516101379190612050565b60405180910390f35b6101486103b8565b6040516101559190612104565b60405180910390f35b6101786004803603810190610173919061215c565b61044a565b60405161018591906121ca565b60405180910390f35b6101a860048036038101906101a39190612211565b6104cf565b005b6101c460048036038101906101bf9190612386565b6105e7565b6040516101d191906123f1565b60405180910390f35b6101e261061f565b6040516101ef91906123f1565b60405180910390f35b610212600480360381019061020d919061240c565b61062c565b005b61022e60048036038101906102299190612211565b61068c565b60405161023b91906123f1565b60405180910390f35b61025e6004803603810190610259919061240c565b610731565b005b61027a6004803603810190610275919061215c565b610751565b60405161028791906123f1565b60405180910390f35b6102aa60048036038101906102a5919061215c565b6107c2565b6040516102b791906121ca565b60405180910390f35b6102da60048036038101906102d5919061245f565b610874565b6040516102e791906123f1565b60405180910390f35b6102f861092c565b6040516103059190612104565b60405180910390f35b610328600480360381019061032391906124b8565b6109be565b005b610344600480360381019061033f9190612599565b610b3f565b005b610360600480360381019061035b919061215c565b610ba1565b60405161036d9190612104565b60405180910390f35b610390600480360381019061038b919061261c565b610bb3565b60405161039d9190612050565b60405180910390f35b60006103b182610c47565b9050919050565b6060600080546103c79061268b565b80601f01602080910402602001604051908101604052809291908181526020018280546103f39061268b565b80156104405780601f1061041557610100808354040283529160200191610440565b820191906000526020600020905b81548152906001019060200180831161042357829003601f168201915b5050505050905090565b600061045582610cc1565b610494576040517f08c379a000000000000000000000000000000000000000000000000000000000815260040161048b9061272f565b60405180910390fd5b6004600083815260200190815260200160002060009054906101000a900473ffffffffffffffffffffffffffffffffffffffff169050919050565b60006104da826107c2565b90508073ffffffffffffffffffffffffffffffffffffffff168373ffffffffffffffffffffffffffffffffffffffff16141561054b576040517f08c379a0000000000000000000000000000000000000000000000000000000008152600401610542906127c1565b60405180910390fd5b8073ffffffffffffffffffffffffffffffffffffffff1661056a610d2d565b73ffffffffffffffffffffffffffffffffffffffff161480610599575061059881610593610d2d565b610bb3565b5b6105d8576040517f08c379a00000000000000000000000000000000000000000000000000000000081526004016105cf90612853565b60405180910390fd5b6105e28383610d35565b505050565b60006105f3600b610dee565b60006105ff600b610e04565b905061060b8482610e12565b6106158184610e30565b8091505092915050565b6000600980549050905090565b61063d610637610d2d565b82610ea4565b61067c576040517f08c379a0000000000000000000000000000000000000000000000000000000008152600401610673906128e5565b60405180910390fd5b610687838383610f82565b505050565b600061069783610874565b82106106d8576040517f08c379a00000000000000000000000000000000000000000000000000000000081526004016106cf90612977565b60405180910390fd5b600760008473ffffffffffffffffffffffffffffffffffffffff1673ffffffffffffffffffffffffffffffffffffffff168152602001908152602001600020600083815260200190815260200160002054905092915050565b61074c83838360405180602001604052806000815250610b3f565b505050565b600061075b61061f565b821061079c576040517f08c379a000000000000000000000000000000000000000000000000000000000815260040161079390612a09565b60405180910390fd5b600982815481106107b0576107af612a29565b5b90600052602060002001549050919050565b6000806002600084815260200190815260200160002060009054906101000a900473ffffffffffffffffffffffffffffffffffffffff169050600073ffffffffffffffffffffffffffffffffffffffff168173ffffffffffffffffffffffffffffffffffffffff16141561086b576040517f08c379a000000000000000000000000000000000000000000000000000000000815260040161086290612aca565b60405180910390fd5b80915050919050565b60008073ffffffffffffffffffffffffffffffffffffffff168273ffffffffffffffffffffffffffffffffffffffff1614156108e5576040517f08c379a00000000000000000000000000000000000000000000000000000000081526004016108dc90612b5c565b60405180910390fd5b600360008373ffffffffffffffffffffffffffffffffffffffff1673ffffffffffffffffffffffffffffffffffffffff168152602001908152602001600020549050919050565b60606001805461093b9061268b565b80601f01602080910402602001604051908101604052809291908181526020018280546109679061268b565b80156109b45780601f10610989576101008083540402835291602001916109b4565b820191906000526020600020905b81548152906001019060200180831161099757829003601f168201915b5050505050905090565b6109c6610d2d565b73ffffffffffffffffffffffffffffffffffffffff168273ffffffffffffffffffffffffffffffffffffffff161415610a34576040517f08c379a0000000000000000000000000000000000000000000000000000000008152600401610a2b90612bc8565b60405180910390fd5b8060056000610a41610d2d565b73ffffffffffffffffffffffffffffffffffffffff1673ffffffffffffffffffffffffffffffffffffffff16815260200190815260200160002060008473ffffffffffffffffffffffffffffffffffffffff1673ffffffffffffffffffffffffffffffffffffffff16815260200190815260200160002060006101000a81548160ff0219169083151502179055508173ffffffffffffffffffffffffffffffffffffffff16610aee610d2d565b73ffffffffffffffffffffffffffffffffffffffff167f17307eab39ab6107e8899845ad3d59bd9653f200f220920489ca2b5937696c3183604051610b339190612050565b60405180910390a35050565b610b50610b4a610d2d565b83610ea4565b610b8f576040517f08c379a0000000000000000000000000000000000000000000000000000000008152600401610b86906128e5565b60405180910390fd5b610b9b848484846111de565b50505050565b6060610bac8261123a565b9050919050565b6000600560008473ffffffffffffffffffffffffffffffffffffffff1673ffffffffffffffffffffffffffffffffffffffff16815260200190815260200160002060008373ffffffffffffffffffffffffffffffffffffffff1673ffffffffffffffffffffffffffffffffffffffff16815260200190815260200160002060009054906101000a900460ff16905092915050565b60007f780e9d63000000000000000000000000000000000000000000000000000000007bffffffffffffffffffffffffffffffffffffffffffffffffffffffff1916827bffffffffffffffffffffffffffffffffffffffffffffffffffffffff19161480610cba5750610cb98261138c565b5b9050919050565b60008073ffffffffffffffffffffffffffffffffffffffff166002600084815260200190815260200160002060009054906101000a900473ffffffffffffffffffffffffffffffffffffffff1673ffffffffffffffffffffffffffffffffffffffff1614159050919050565b600033905090565b816004600083815260200190815260200160002060006101000a81548173ffffffffffffffffffffffffffffffffffffffff021916908373ffffffffffffffffffffffffffffffffffffffff160217905550808273ffffffffffffffffffffffffffffffffffffffff16610da8836107c2565b73ffffffffffffffffffffffffffffffffffffffff167f8c5be1e5ebec7d5bd14f71427d1e84f3dd0314c0f7b2291e5b200ac8c7c3b92560405160405180910390a45050565b6001816000016000828254019250508190555050565b600081600001549050919050565b610e2c82826040518060200160405280600081525061146e565b5050565b610e3982610cc1565b610e78576040517f08c379a0000000000000000000000000000000000000000000000000000000008152600401610e6f90612c5a565b60405180910390fd5b80600660008481526020019081526020016000209080519060200190610e9f929190611ef9565b505050565b6000610eaf82610cc1565b610eee576040517f08c379a0000000000000000000000000000000000000000000000000000000008152600401610ee590612cec565b60405180910390fd5b6000610ef9836107c2565b90508073ffffffffffffffffffffffffffffffffffffffff168473ffffffffffffffffffffffffffffffffffffffff161480610f6857508373ffffffffffffffffffffffffffffffffffffffff16610f508461044a565b73ffffffffffffffffffffffffffffffffffffffff16145b80610f795750610f788185610bb3565b5b91505092915050565b8273ffffffffffffffffffffffffffffffffffffffff16610fa2826107c2565b73ffffffffffffffffffffffffffffffffffffffff1614610ff8576040517f08c379a0000000000000000000000000000000000000000000000000000000008152600401610fef90612d7e565b60405180910390fd5b600073ffffffffffffffffffffffffffffffffffffffff168273ffffffffffffffffffffffffffffffffffffffff161415611068576040517f08c379a000000000000000000000000000000000000000000000000000000000815260040161105f90612e10565b60405180910390fd5b6110738383836114c9565b61107e600082610d35565b6001600360008573ffffffffffffffffffffffffffffffffffffffff1673ffffffffffffffffffffffffffffffffffffffff16815260200190815260200160002060008282546110ce9190612e5f565b925050819055506001600360008473ffffffffffffffffffffffffffffffffffffffff1673ffffffffffffffffffffffffffffffffffffffff16815260200190815260200160002060008282546111259190612e93565b92505081905550816002600083815260200190815260200160002060006101000a81548173ffffffffffffffffffffffffffffffffffffffff021916908373ffffffffffffffffffffffffffffffffffffffff160217905550808273ffffffffffffffffffffffffffffffffffffffff168473ffffffffffffffffffffffffffffffffffffffff167fddf252ad1be2c89b69c2b068fc378daa952ba7f163c4a11628f55a4df523b3ef60405160405180910390a4505050565b6111e9848484610f82565b6111f5848484846114d9565b611234576040517f08c379a000000000000000000000000000000000000000000000000000000000815260040161122b90612f5b565b60405180910390fd5b50505050565b606061124582610cc1565b611284576040517f08c379a000000000000000000000000000000000000000000000000000000000815260040161127b90612fed565b60405180910390fd5b60006006600084815260200190815260200160002080546112a49061268b565b80601f01602080910402602001604051908101604052809291908181526020018280546112d09061268b565b801561131d5780601f106112f25761010080835404028352916020019161131d565b820191906000526020600020905b81548152906001019060200180831161130057829003601f168201915b50505050509050600061132e611670565b9050600081511415611344578192505050611387565b600082511115611379578082604051602001611361929190613049565b60405160208183030381529060405292505050611387565b61138284611687565b925050505b919050565b60007f80ac58cd000000000000000000000000000000000000000000000000000000007bffffffffffffffffffffffffffffffffffffffffffffffffffffffff1916827bffffffffffffffffffffffffffffffffffffffffffffffffffffffff1916148061145757507f5b5e139f000000000000000000000000000000000000000000000000000000007bffffffffffffffffffffffffffffffffffffffffffffffffffffffff1916827bffffffffffffffffffffffffffffffffffffffffffffffffffffffff1916145b8061146757506114668261172e565b5b9050919050565b6114788383611798565b61148560008484846114d9565b6114c4576040517f08c379a00000000000000000000000000000000000000000000000000000000081526004016114bb90612f5b565b60405180910390fd5b505050565b6114d4838383611966565b505050565b60006114fa8473ffffffffffffffffffffffffffffffffffffffff16611a7a565b15611663578373ffffffffffffffffffffffffffffffffffffffff1663150b7a02611523610d2d565b8786866040518563ffffffff1660e01b815260040161154594939291906130c2565b602060405180830381600087803b15801561155f57600080fd5b505af192505050801561159057506040513d601f19601f8201168201806040525081019061158d9190613123565b60015b611613573d80600081146115c0576040519150601f19603f3d011682016040523d82523d6000602084013e6115c5565b606091505b5060008151141561160b576040517f08c379a000000000000000000000000000000000000000000000000000000000815260040161160290612f5b565b60405180910390fd5b805181602001fd5b63150b7a0260e01b7bffffffffffffffffffffffffffffffffffffffffffffffffffffffff1916817bffffffffffffffffffffffffffffffffffffffffffffffffffffffff191614915050611668565b600190505b949350505050565b606060405180602001604052806000815250905090565b606061169282610cc1565b6116d1576040517f08c379a00000000000000000000000000000000000000000000000000000000081526004016116c8906131c2565b60405180910390fd5b60006116db611670565b905060008151116116fb5760405180602001604052806000815250611726565b8061170584611a8d565b604051602001611716929190613049565b6040516020818303038152906040525b915050919050565b60007f01ffc9a7000000000000000000000000000000000000000000000000000000007bffffffffffffffffffffffffffffffffffffffffffffffffffffffff1916827bffffffffffffffffffffffffffffffffffffffffffffffffffffffff1916149050919050565b600073ffffffffffffffffffffffffffffffffffffffff168273ffffffffffffffffffffffffffffffffffffffff161415611808576040517f08c379a00000000000000000000000000000000000000000000000000000000081526004016117ff9061322e565b60405180910390fd5b61181181610cc1565b15611851576040517f08c379a00000000000000000000000000000000000000000000000000000000081526004016118489061329a565b60405180910390fd5b61185d600083836114c9565b6001600360008473ffffffffffffffffffffffffffffffffffffffff1673ffffffffffffffffffffffffffffffffffffffff16815260200190815260200160002060008282546118ad9190612e93565b92505081905550816002600083815260200190815260200160002060006101000a81548173ffffffffffffffffffffffffffffffffffffffff021916908373ffffffffffffffffffffffffffffffffffffffff160217905550808273ffffffffffffffffffffffffffffffffffffffff16600073ffffffffffffffffffffffffffffffffffffffff167fddf252ad1be2c89b69c2b068fc378daa952ba7f163c4a11628f55a4df523b3ef60405160405180910390a45050565b611971838383611bee565b600073ffffffffffffffffffffffffffffffffffffffff168373ffffffffffffffffffffffffffffffffffffffff1614156119b4576119af81611bf3565b6119f3565b8173ffffffffffffffffffffffffffffffffffffffff168373ffffffffffffffffffffffffffffffffffffffff16146119f2576119f18382611c3c565b5b5b600073ffffffffffffffffffffffffffffffffffffffff168273ffffffffffffffffffffffffffffffffffffffff161415611a3657611a3181611da9565b611a75565b8273ffffffffffffffffffffffffffffffffffffffff168273ffffffffffffffffffffffffffffffffffffffff1614611a7457611a738282611e7a565b5b5b505050565b600080823b905060008111915050919050565b60606000821415611ad5576040518060400160405280600181526020017f30000000000000000000000000000000000000000000000000000000000000008152509050611be9565b600082905060005b60008214611b07578080611af0906132ba565b915050600a82611b009190613332565b9150611add565b60008167ffffffffffffffff811115611b2357611b2261225b565b5b6040519080825280601f01601f191660200182016040528015611b555781602001600182028036833780820191505090505b5090505b60008514611be257600182611b6e9190612e5f565b9150600a85611b7d9190613363565b6030611b899190612e93565b60f81b818381518110611b9f57611b9e612a29565b5b60200101907effffffffffffffffffffffffffffffffffffffffffffffffffffffffffffff1916908160001a905350600a85611bdb9190613332565b9450611b59565b8093505050505b919050565b505050565b600980549050600a600083815260200190815260200160002081905550600981908060018154018082558091505060019003906000526020600020016000909190919091505550565b60006001611c4984610874565b611c539190612e5f565b9050600060086000848152602001908152602001600020549050818114611d38576000600760008673ffffffffffffffffffffffffffffffffffffffff1673ffffffffffffffffffffffffffffffffffffffff168152602001908152602001600020600084815260200190815260200160002054905080600760008773ffffffffffffffffffffffffffffffffffffffff1673ffffffffffffffffffffffffffffffffffffffff168152602001908152602001600020600084815260200190815260200160002081905550816008600083815260200190815260200160002081905550505b6008600084815260200190815260200160002060009055600760008573ffffffffffffffffffffffffffffffffffffffff1673ffffffffffffffffffffffffffffffffffffffff16815260200190815260200160002060008381526020019081526020016000206000905550505050565b60006001600980549050611dbd9190612e5f565b90506000600a6000848152602001908152602001600020549050600060098381548110611ded57611dec612a29565b5b906000526020600020015490508060098381548110611e0f57611e0e612a29565b5b906000526020600020018190555081600a600083815260200190815260200160002081905550600a6000858152602001908152602001600020600090556009805480611e5e57611e5d613394565b5b6001900381819060005260206000200160009055905550505050565b6000611e8583610874565b905081600760008573ffffffffffffffffffffffffffffffffffffffff1673ffffffffffffffffffffffffffffffffffffffff168152602001908152602001600020600083815260200190815260200160002081905550806008600084815260200190815260200160002081905550505050565b828054611f059061268b565b90600052602060002090601f016020900481019282611f275760008555611f6e565b82601f10611f4057805160ff1916838001178555611f6e565b82800160010185558215611f6e579182015b82811115611f6d578251825591602001919060010190611f52565b5b509050611f7b9190611f7f565b5090565b5b80821115611f98576000816000905550600101611f80565b5090565b6000604051905090565b600080fd5b600080fd5b60007fffffffff0000000000000000000000000000000000000000000000000000000082169050919050565b611fe581611fb0565b8114611ff057600080fd5b50565b60008135905061200281611fdc565b92915050565b60006020828403121561201e5761201d611fa6565b5b600061202c84828501611ff3565b91505092915050565b60008115159050919050565b61204a81612035565b82525050565b60006020820190506120656000830184612041565b92915050565b600081519050919050565b600082825260208201905092915050565b60005b838110156120a557808201518184015260208101905061208a565b838111156120b4576000848401525b50505050565b6000601f19601f8301169050919050565b60006120d68261206b565b6120e08185612076565b93506120f0818560208601612087565b6120f9816120ba565b840191505092915050565b6000602082019050818103600083015261211e81846120cb565b905092915050565b6000819050919050565b61213981612126565b811461214457600080fd5b50565b60008135905061215681612130565b92915050565b60006020828403121561217257612171611fa6565b5b600061218084828501612147565b91505092915050565b600073ffffffffffffffffffffffffffffffffffffffff82169050919050565b60006121b482612189565b9050919050565b6121c4816121a9565b82525050565b60006020820190506121df60008301846121bb565b92915050565b6121ee816121a9565b81146121f957600080fd5b50565b60008135905061220b816121e5565b92915050565b6000806040838503121561222857612227611fa6565b5b6000612236858286016121fc565b925050602061224785828601612147565b9150509250929050565b600080fd5b600080fd5b7f4e487b7100000000000000000000000000000000000000000000000000000000600052604160045260246000fd5b612293826120ba565b810181811067ffffffffffffffff821117156122b2576122b161225b565b5b80604052505050565b60006122c5611f9c565b90506122d1828261228a565b919050565b600067ffffffffffffffff8211156122f1576122f061225b565b5b6122fa826120ba565b9050602081019050919050565b82818337600083830152505050565b6000612329612324846122d6565b6122bb565b90508281526020810184848401111561234557612344612256565b5b612350848285612307565b509392505050565b600082601f83011261236d5761236c612251565b5b813561237d848260208601612316565b91505092915050565b6000806040838503121561239d5761239c611fa6565b5b60006123ab858286016121fc565b925050602083013567ffffffffffffffff8111156123cc576123cb611fab565b5b6123d885828601612358565b9150509250929050565b6123eb81612126565b82525050565b600060208201905061240660008301846123e2565b92915050565b60008060006060848603121561242557612424611fa6565b5b6000612433868287016121fc565b9350506020612444868287016121fc565b925050604061245586828701612147565b9150509250925092565b60006020828403121561247557612474611fa6565b5b6000612483848285016121fc565b91505092915050565b61249581612035565b81146124a057600080fd5b50565b6000813590506124b28161248c565b92915050565b600080604083850312156124cf576124ce611fa6565b5b60006124dd858286016121fc565b92505060206124ee858286016124a3565b9150509250929050565b600067ffffffffffffffff8211156125135761251261225b565b5b61251c826120ba565b9050602081019050919050565b600061253c612537846124f8565b6122bb565b90508281526020810184848401111561255857612557612256565b5b612563848285612307565b509392505050565b600082601f8301126125805761257f612251565b5b8135612590848260208601612529565b91505092915050565b600080600080608085870312156125b3576125b2611fa6565b5b60006125c1878288016121fc565b94505060206125d2878288016121fc565b93505060406125e387828801612147565b925050606085013567ffffffffffffffff81111561260457612603611fab565b5b6126108782880161256b565b91505092959194509250565b6000806040838503121561263357612632611fa6565b5b6000612641858286016121fc565b9250506020612652858286016121fc565b9150509250929050565b7f4e487b7100000000000000000000000000000000000000000000000000000000600052602260045260246000fd5b600060028204905060018216806126a357607f821691505b602082108114156126b7576126b661265c565b5b50919050565b7f4552433732313a20617070726f76656420717565727920666f72206e6f6e657860008201527f697374656e7420746f6b656e0000000000000000000000000000000000000000602082015250565b6000612719602c83612076565b9150612724826126bd565b604082019050919050565b600060208201905081810360008301526127488161270c565b9050919050565b7f4552433732313a20617070726f76616c20746f2063757272656e74206f776e6560008201527f7200000000000000000000000000000000000000000000000000000000000000602082015250565b60006127ab602183612076565b91506127b68261274f565b604082019050919050565b600060208201905081810360008301526127da8161279e565b9050919050565b7f4552433732313a20617070726f76652063616c6c6572206973206e6f74206f7760008201527f6e6572206e6f7220617070726f76656420666f7220616c6c0000000000000000602082015250565b600061283d603883612076565b9150612848826127e1565b604082019050919050565b6000602082019050818103600083015261286c81612830565b9050919050565b7f4552433732313a207472616e736665722063616c6c6572206973206e6f74206f60008201527f776e6572206e6f7220617070726f766564000000000000000000000000000000602082015250565b60006128cf603183612076565b91506128da82612873565b604082019050919050565b600060208201905081810360008301526128fe816128c2565b9050919050565b7f455243373231456e756d657261626c653a206f776e657220696e646578206f7560008201527f74206f6620626f756e6473000000000000000000000000000000000000000000602082015250565b6000612961602b83612076565b915061296c82612905565b604082019050919050565b6000602082019050818103600083015261299081612954565b9050919050565b7f455243373231456e756d657261626c653a20676c6f62616c20696e646578206f60008201527f7574206f6620626f756e64730000000000000000000000000000000000000000602082015250565b60006129f3602c83612076565b91506129fe82612997565b604082019050919050565b60006020820190508181036000830152612a22816129e6565b9050919050565b7f4e487b7100000000000000000000000000000000000000000000000000000000600052603260045260246000fd5b7f4552433732313a206f776e657220717565727920666f72206e6f6e657869737460008201527f656e7420746f6b656e0000000000000000000000000000000000000000000000602082015250565b6000612ab4602983612076565b9150612abf82612a58565b604082019050919050565b60006020820190508181036000830152612ae381612aa7565b9050919050565b7f4552433732313a2062616c616e636520717565727920666f7220746865207a6560008201527f726f206164647265737300000000000000000000000000000000000000000000602082015250565b6000612b46602a83612076565b9150612b5182612aea565b604082019050919050565b60006020820190508181036000830152612b7581612b39565b9050919050565b7f4552433732313a20617070726f766520746f2063616c6c657200000000000000600082015250565b6000612bb2601983612076565b9150612bbd82612b7c565b602082019050919050565b60006020820190508181036000830152612be181612ba5565b9050919050565b7f45524337323155524953746f726167653a2055524920736574206f66206e6f6e60008201527f6578697374656e7420746f6b656e000000000000000000000000000000000000602082015250565b6000612c44602e83612076565b9150612c4f82612be8565b604082019050919050565b60006020820190508181036000830152612c7381612c37565b9050919050565b7f4552433732313a206f70657261746f7220717565727920666f72206e6f6e657860008201527f697374656e7420746f6b656e0000000000000000000000000000000000000000602082015250565b6000612cd6602c83612076565b9150612ce182612c7a565b604082019050919050565b60006020820190508181036000830152612d0581612cc9565b9050919050565b7f4552433732313a207472616e73666572206f6620746f6b656e2074686174206960008201527f73206e6f74206f776e0000000000000000000000000000000000000000000000602082015250565b6000612d68602983612076565b9150612d7382612d0c565b604082019050919050565b60006020820190508181036000830152612d9781612d5b565b9050919050565b7f4552433732313a207472616e7366657220746f20746865207a65726f2061646460008201527f7265737300000000000000000000000000000000000000000000000000000000602082015250565b6000612dfa602483612076565b9150612e0582612d9e565b604082019050919050565b60006020820190508181036000830152612e2981612ded565b9050919050565b7f4e487b7100000000000000000000000000000000000000000000000000000000600052601160045260246000fd5b6000612e6a82612126565b9150612e7583612126565b925082821015612e8857612e87612e30565b5b828203905092915050565b6000612e9e82612126565b9150612ea983612126565b9250827fffffffffffffffffffffffffffffffffffffffffffffffffffffffffffffffff03821115612ede57612edd612e30565b5b828201905092915050565b7f4552433732313a207472616e7366657220746f206e6f6e20455243373231526560008201527f63656976657220696d706c656d656e7465720000000000000000000000000000602082015250565b6000612f45603283612076565b9150612f5082612ee9565b604082019050919050565b60006020820190508181036000830152612f7481612f38565b9050919050565b7f45524337323155524953746f726167653a2055524920717565727920666f722060008201527f6e6f6e6578697374656e7420746f6b656e000000000000000000000000000000602082015250565b6000612fd7603183612076565b9150612fe282612f7b565b604082019050919050565b6000602082019050818103600083015261300681612fca565b9050919050565b600081905092915050565b60006130238261206b565b61302d818561300d565b935061303d818560208601612087565b80840191505092915050565b60006130558285613018565b91506130618284613018565b91508190509392505050565b600081519050919050565b600082825260208201905092915050565b60006130948261306d565b61309e8185613078565b93506130ae818560208601612087565b6130b7816120ba565b840191505092915050565b60006080820190506130d760008301876121bb565b6130e460208301866121bb565b6130f160408301856123e2565b81810360608301526131038184613089565b905095945050505050565b60008151905061311d81611fdc565b92915050565b60006020828403121561313957613138611fa6565b5b60006131478482850161310e565b91505092915050565b7f4552433732314d657461646174613a2055524920717565727920666f72206e6f60008201527f6e6578697374656e7420746f6b656e0000000000000000000000000000000000602082015250565b60006131ac602f83612076565b91506131b782613150565b604082019050919050565b600060208201905081810360008301526131db8161319f565b9050919050565b7f4552433732313a206d696e7420746f20746865207a65726f2061646472657373600082015250565b6000613218602083612076565b9150613223826131e2565b602082019050919050565b600060208201905081810360008301526132478161320b565b9050919050565b7f4552433732313a20746f6b656e20616c7265616479206d696e74656400000000600082015250565b6000613284601c83612076565b915061328f8261324e565b602082019050919050565b600060208201905081810360008301526132b381613277565b9050919050565b60006132c582612126565b91507fffffffffffffffffffffffffffffffffffffffffffffffffffffffffffffffff8214156132f8576132f7612e30565b5b600182019050919050565b7f4e487b7100000000000000000000000000000000000000000000000000000000600052601260045260246000fd5b600061333d82612126565b915061334883612126565b92508261335857613357613303565b5b828204905092915050565b600061336e82612126565b915061337983612126565b92508261338957613388613303565b5b828206905092915050565b7f4e487b7100000000000000000000000000000000000000000000000000000000600052603160045260246000fdfea2646970667358221220a3d9eb7ffb37505f55b01dd4611c9566b06cfa8a9b2325234802eaa3878d327864736f6c63430008090033",
  "immutableReferences": {},
  "source": "pragma solidity ^0.8.0;\n//SPDX-License-Identifier: MIT\n\nimport \"@openzeppelin/contracts/token/ERC721/ERC721.sol\";\nimport \"@openzeppelin/contracts/token/ERC721/extensions/ERC721URIStorage.sol\";\nimport \"@openzeppelin/contracts/token/ERC721/extensions/ERC721Enumerable.sol\";\nimport \"@openzeppelin/contracts/utils/Counters.sol\";\n\n//learn more: https://docs.openzeppelin.com/contracts/3.x/erc721\n\n// GET LISTED ON OPENSEA: https://testnets.opensea.io/get-listed/step-two\n\ncontract Gremlin is ERC721, ERC721URIStorage, ERC721Enumerable {\n  using Counters for Counters.Counter;\n  Counters.Counter private _tokenIds;\n\n  constructor() ERC721(\"Gremlin\", \"GRE\") {}\n\n  function _beforeTokenTransfer(\n    address from,\n    address to,\n    uint256 tokenId\n  ) internal override(ERC721, ERC721Enumerable) {\n    super._beforeTokenTransfer(from, to, tokenId);\n  }\n\n  function supportsInterface(bytes4 interfaceId) public view override(ERC721, ERC721Enumerable) returns (bool) {\n    return super.supportsInterface(interfaceId);\n  }\n\n  function _burn(uint256 tokenId) internal override(ERC721, ERC721URIStorage) {\n    super._burn(tokenId);\n  }\n\n  function tokenURI(uint256 tokenId) public view override(ERC721, ERC721URIStorage) returns (string memory) {\n    return super.tokenURI(tokenId);\n  }\n\n  function mintItem(address to, string memory tokenUri) public returns (uint256) {\n    _tokenIds.increment();\n\n    uint256 id = _tokenIds.current();\n\n    _safeMint(to, id);\n    _setTokenURI(id, tokenUri);\n\n    return id;\n  }\n}\n",
  "sourcePath": "/Users/duxiaofeng/code/gremlin/blockchain/contracts/Gremlin.sol",
  "compiler": {
    "name": "solc",
    "version": "0.8.9+commit.e5eed63a.Darwin.appleclang"
  },
  "schemaVersion": "3.4.3",
  "updatedAt": "2021-11-08T13:11:48.547Z",
  "networkType": "ethereum",
  "devdoc": {
    "kind": "dev",
    "methods": {
      "approve(address,uint256)": {
        "details": "See {IERC721-approve}."
      },
      "balanceOf(address)": {
        "details": "See {IERC721-balanceOf}."
      },
      "getApproved(uint256)": {
        "details": "See {IERC721-getApproved}."
      },
      "isApprovedForAll(address,address)": {
        "details": "See {IERC721-isApprovedForAll}."
      },
      "name()": {
        "details": "See {IERC721Metadata-name}."
      },
      "ownerOf(uint256)": {
        "details": "See {IERC721-ownerOf}."
      },
      "safeTransferFrom(address,address,uint256)": {
        "details": "See {IERC721-safeTransferFrom}."
      },
      "safeTransferFrom(address,address,uint256,bytes)": {
        "details": "See {IERC721-safeTransferFrom}."
      },
      "setApprovalForAll(address,bool)": {
        "details": "See {IERC721-setApprovalForAll}."
      },
      "symbol()": {
        "details": "See {IERC721Metadata-symbol}."
      },
      "tokenByIndex(uint256)": {
        "details": "See {IERC721Enumerable-tokenByIndex}."
      },
      "tokenOfOwnerByIndex(address,uint256)": {
        "details": "See {IERC721Enumerable-tokenOfOwnerByIndex}."
      },
      "totalSupply()": {
        "details": "See {IERC721Enumerable-totalSupply}."
      },
      "transferFrom(address,address,uint256)": {
        "details": "See {IERC721-transferFrom}."
      }
    },
    "version": 1
  },
  "userdoc": {
    "kind": "user",
    "methods": {},
    "version": 1
  }
}