{
  "contractName": "GremlinMarketplace",
  "abi": [
    {
      "inputs": [
        {
          "internalType": "address",
          "name": "_gremlin",
          "type": "address"
        }
      ],
      "stateMutability": "nonpayable",
      "type": "constructor"
    },
    {
      "anonymous": false,
      "inputs": [
        {
          "indexed": false,
          "internalType": "uint256",
          "name": "offerId",
          "type": "uint256"
        },
        {
          "indexed": false,
          "internalType": "uint256",
          "name": "id",
          "type": "uint256"
        },
        {
          "indexed": false,
          "internalType": "address",
          "name": "user",
          "type": "address"
        },
        {
          "indexed": false,
          "internalType": "uint256",
          "name": "price",
          "type": "uint256"
        },
        {
          "indexed": false,
          "internalType": "bool",
          "name": "fulfilled",
          "type": "bool"
        },
        {
          "indexed": false,
          "internalType": "bool",
          "name": "cancelled",
          "type": "bool"
        }
      ],
      "name": "Offer",
      "type": "event"
    },
    {
      "anonymous": false,
      "inputs": [
        {
          "indexed": false,
          "internalType": "uint256",
          "name": "offerId",
          "type": "uint256"
        },
        {
          "indexed": false,
          "internalType": "uint256",
          "name": "id",
          "type": "uint256"
        },
        {
          "indexed": false,
          "internalType": "address",
          "name": "owner",
          "type": "address"
        }
      ],
      "name": "OfferCancelled",
      "type": "event"
    },
    {
      "anonymous": false,
      "inputs": [
        {
          "indexed": false,
          "internalType": "uint256",
          "name": "offerId",
          "type": "uint256"
        },
        {
          "indexed": false,
          "internalType": "uint256",
          "name": "id",
          "type": "uint256"
        },
        {
          "indexed": false,
          "internalType": "address",
          "name": "newOwner",
          "type": "address"
        }
      ],
      "name": "OfferFilled",
      "type": "event"
    },
    {
      "stateMutability": "nonpayable",
      "type": "fallback"
    },
    {
      "inputs": [],
      "name": "offerCount",
      "outputs": [
        {
          "internalType": "uint256",
          "name": "",
          "type": "uint256"
        }
      ],
      "stateMutability": "view",
      "type": "function",
      "constant": true
    },
    {
      "inputs": [
        {
          "internalType": "uint256",
          "name": "",
          "type": "uint256"
        }
      ],
      "name": "offers",
      "outputs": [
        {
          "internalType": "uint256",
          "name": "offerId",
          "type": "uint256"
        },
        {
          "internalType": "uint256",
          "name": "id",
          "type": "uint256"
        },
        {
          "internalType": "address",
          "name": "user",
          "type": "address"
        },
        {
          "internalType": "uint256",
          "name": "price",
          "type": "uint256"
        },
        {
          "internalType": "bool",
          "name": "fulfilled",
          "type": "bool"
        },
        {
          "internalType": "bool",
          "name": "cancelled",
          "type": "bool"
        }
      ],
      "stateMutability": "view",
      "type": "function",
      "constant": true
    },
    {
      "inputs": [
        {
          "internalType": "address",
          "name": "",
          "type": "address"
        }
      ],
      "name": "userFunds",
      "outputs": [
        {
          "internalType": "uint256",
          "name": "",
          "type": "uint256"
        }
      ],
      "stateMutability": "view",
      "type": "function",
      "constant": true
    },
    {
      "inputs": [
        {
          "internalType": "uint256",
          "name": "_id",
          "type": "uint256"
        },
        {
          "internalType": "uint256",
          "name": "_price",
          "type": "uint256"
        }
      ],
      "name": "makeOffer",
      "outputs": [],
      "stateMutability": "nonpayable",
      "type": "function"
    },
    {
      "inputs": [
        {
          "internalType": "uint256",
          "name": "_offerId",
          "type": "uint256"
        }
      ],
      "name": "fillOffer",
      "outputs": [],
      "stateMutability": "payable",
      "type": "function",
      "payable": true
    },
    {
      "inputs": [
        {
          "internalType": "uint256",
          "name": "_offerId",
          "type": "uint256"
        }
      ],
      "name": "cancelOffer",
      "outputs": [],
      "stateMutability": "nonpayable",
      "type": "function"
    }
  ],
  "bytecode": "0x60806040523480156200001157600080fd5b506040516200135c3803806200135c8339818101604052810190620000379190620000e9565b80600360006101000a81548173ffffffffffffffffffffffffffffffffffffffff021916908373ffffffffffffffffffffffffffffffffffffffff160217905550506200011b565b600080fd5b600073ffffffffffffffffffffffffffffffffffffffff82169050919050565b6000620000b18262000084565b9050919050565b620000c381620000a4565b8114620000cf57600080fd5b50565b600081519050620000e381620000b8565b92915050565b6000602082840312156200010257620001016200007f565b5b60006200011284828501620000d2565b91505092915050565b611231806200012b6000396000f3fe6080604052600436106100595760003560e01c806305b7cdd31461006c5780631115c24d146100955780638387c6e1146100c057806385dba861146100fd5780638a72ea6a14610119578063ef706adf1461015b5761005a565b5b34801561006657600080fd5b50600080fd5b34801561007857600080fd5b50610093600480360381019061008e9190610a5b565b610184565b005b3480156100a157600080fd5b506100aa61037b565b6040516100b79190610aaa565b60405180910390f35b3480156100cc57600080fd5b506100e760048036038101906100e29190610b23565b610381565b6040516100f49190610aaa565b60405180910390f35b61011760048036038101906101129190610b50565b610399565b005b34801561012557600080fd5b50610140600480360381019061013b9190610b50565b610716565b60405161015296959493929190610ba7565b60405180910390f35b34801561016757600080fd5b50610182600480360381019061017d9190610b50565b61078c565b005b600360009054906101000a900473ffffffffffffffffffffffffffffffffffffffff1673ffffffffffffffffffffffffffffffffffffffff166323b872dd3330856040518463ffffffff1660e01b81526004016101e393929190610c08565b600060405180830381600087803b1580156101fd57600080fd5b505af1158015610211573d6000803e3d6000fd5b5050505060008081548092919061022790610c6e565b91905055506040518060c0016040528060005481526020018381526020013373ffffffffffffffffffffffffffffffffffffffff168152602001828152602001600015158152602001600015158152506001600080548152602001908152602001600020600082015181600001556020820151816001015560408201518160020160006101000a81548173ffffffffffffffffffffffffffffffffffffffff021916908373ffffffffffffffffffffffffffffffffffffffff1602179055506060820151816003015560808201518160040160006101000a81548160ff02191690831515021790555060a08201518160040160016101000a81548160ff0219169083151502179055509050507f93e711896d4ef527d199d7e101922e20f918cbb248a0fb0977c52fda24aa1f1d60005483338460008060405161036f96959493929190610ba7565b60405180910390a15050565b60005481565b60026020528060005260406000206000915090505481565b6000600160008381526020019081526020016000209050818160000154146103f6576040517f08c379a00000000000000000000000000000000000000000000000000000000081526004016103ed90610d14565b60405180910390fd5b3373ffffffffffffffffffffffffffffffffffffffff168160020160009054906101000a900473ffffffffffffffffffffffffffffffffffffffff1673ffffffffffffffffffffffffffffffffffffffff161415610489576040517f08c379a000000000000000000000000000000000000000000000000000000000815260040161048090610da6565b60405180910390fd5b8060040160009054906101000a900460ff16156104db576040517f08c379a00000000000000000000000000000000000000000000000000000000081526004016104d290610e38565b60405180910390fd5b8060040160019054906101000a900460ff161561052d576040517f08c379a000000000000000000000000000000000000000000000000000000000815260040161052490610eca565b60405180910390fd5b80600301543414610573576040517f08c379a000000000000000000000000000000000000000000000000000000000815260040161056a90610f5c565b60405180910390fd5b600360009054906101000a900473ffffffffffffffffffffffffffffffffffffffff1673ffffffffffffffffffffffffffffffffffffffff166323b872dd303384600101546040518463ffffffff1660e01b81526004016105d693929190610c08565b600060405180830381600087803b1580156105f057600080fd5b505af1158015610604573d6000803e3d6000fd5b505050506000341161064b576040517f08c379a000000000000000000000000000000000000000000000000000000000815260040161064290610fee565b60405180910390fd5b8060020160009054906101000a900473ffffffffffffffffffffffffffffffffffffffff1673ffffffffffffffffffffffffffffffffffffffff166108fc349081150290604051600060405180830381858888f193505050501580156106b5573d6000803e3d6000fd5b5060018160040160006101000a81548160ff0219169083151502179055507fd9157c065213ada613694e84b1e27fe2efd62d85c6b82bd6c842a4999491e72a8282600101543360405161070a9392919061100e565b60405180910390a15050565b60016020528060005260406000206000915090508060000154908060010154908060020160009054906101000a900473ffffffffffffffffffffffffffffffffffffffff16908060030154908060040160009054906101000a900460ff16908060040160019054906101000a900460ff16905086565b6000600160008381526020019081526020016000209050818160000154146107e9576040517f08c379a00000000000000000000000000000000000000000000000000000000081526004016107e090610d14565b60405180910390fd5b3373ffffffffffffffffffffffffffffffffffffffff168160020160009054906101000a900473ffffffffffffffffffffffffffffffffffffffff1673ffffffffffffffffffffffffffffffffffffffff161461087b576040517f08c379a0000000000000000000000000000000000000000000000000000000008152600401610872906110b7565b60405180910390fd5b600015158160040160009054906101000a900460ff161515146108d3576040517f08c379a00000000000000000000000000000000000000000000000000000000081526004016108ca90611149565b60405180910390fd5b600015158160040160019054906101000a900460ff1615151461092b576040517f08c379a0000000000000000000000000000000000000000000000000000000008152600401610922906111db565b60405180910390fd5b600360009054906101000a900473ffffffffffffffffffffffffffffffffffffffff1673ffffffffffffffffffffffffffffffffffffffff166323b872dd303384600101546040518463ffffffff1660e01b815260040161098e93929190610c08565b600060405180830381600087803b1580156109a857600080fd5b505af11580156109bc573d6000803e3d6000fd5b5050505060018160040160016101000a81548160ff0219169083151502179055507f5b166b4d0498ff8c4719999cb6154c5d197e6f020f9fbfcf9d347f84576cfab782826001015433604051610a149392919061100e565b60405180910390a15050565b600080fd5b6000819050919050565b610a3881610a25565b8114610a4357600080fd5b50565b600081359050610a5581610a2f565b92915050565b60008060408385031215610a7257610a71610a20565b5b6000610a8085828601610a46565b9250506020610a9185828601610a46565b9150509250929050565b610aa481610a25565b82525050565b6000602082019050610abf6000830184610a9b565b92915050565b600073ffffffffffffffffffffffffffffffffffffffff82169050919050565b6000610af082610ac5565b9050919050565b610b0081610ae5565b8114610b0b57600080fd5b50565b600081359050610b1d81610af7565b92915050565b600060208284031215610b3957610b38610a20565b5b6000610b4784828501610b0e565b91505092915050565b600060208284031215610b6657610b65610a20565b5b6000610b7484828501610a46565b91505092915050565b610b8681610ae5565b82525050565b60008115159050919050565b610ba181610b8c565b82525050565b600060c082019050610bbc6000830189610a9b565b610bc96020830188610a9b565b610bd66040830187610b7d565b610be36060830186610a9b565b610bf06080830185610b98565b610bfd60a0830184610b98565b979650505050505050565b6000606082019050610c1d6000830186610b7d565b610c2a6020830185610b7d565b610c376040830184610a9b565b949350505050565b7f4e487b7100000000000000000000000000000000000000000000000000000000600052601160045260246000fd5b6000610c7982610a25565b91507fffffffffffffffffffffffffffffffffffffffffffffffffffffffffffffffff821415610cac57610cab610c3f565b5b600182019050919050565b600082825260208201905092915050565b7f546865206f66666572206d757374206578697374000000000000000000000000600082015250565b6000610cfe601483610cb7565b9150610d0982610cc8565b602082019050919050565b60006020820190508181036000830152610d2d81610cf1565b9050919050565b7f546865206f776e6572206f6620746865206f666665722063616e6e6f7420666960008201527f6c6c206974000000000000000000000000000000000000000000000000000000602082015250565b6000610d90602583610cb7565b9150610d9b82610d34565b604082019050919050565b60006020820190508181036000830152610dbf81610d83565b9050919050565b7f416e206f666665722063616e6e6f742062652066756c66696c6c65642074776960008201527f6365000000000000000000000000000000000000000000000000000000000000602082015250565b6000610e22602283610cb7565b9150610e2d82610dc6565b604082019050919050565b60006020820190508181036000830152610e5181610e15565b9050919050565b7f412063616e63656c6c6564206f666665722063616e6e6f742062652066756c6660008201527f696c6c6564000000000000000000000000000000000000000000000000000000602082015250565b6000610eb4602583610cb7565b9150610ebf82610e58565b604082019050919050565b60006020820190508181036000830152610ee381610ea7565b9050919050565b7f5468652045544820616d6f756e742073686f756c64206d61746368207769746860008201527f20746865204e4654205072696365000000000000000000000000000000000000602082015250565b6000610f46602e83610cb7565b9150610f5182610eea565b604082019050919050565b60006020820190508181036000830152610f7581610f39565b9050919050565b7f54686973207573657220686173206e6f2066756e647320746f20626520636c6160008201527f696d656400000000000000000000000000000000000000000000000000000000602082015250565b6000610fd8602483610cb7565b9150610fe382610f7c565b604082019050919050565b6000602082019050818103600083015261100781610fcb565b9050919050565b60006060820190506110236000830186610a9b565b6110306020830185610a9b565b61103d6040830184610b7d565b949350505050565b7f546865206f666665722063616e206f6e6c792062652063616e63656c6564206260008201527f7920746865206f776e6572000000000000000000000000000000000000000000602082015250565b60006110a1602b83610cb7565b91506110ac82611045565b604082019050919050565b600060208201905081810360008301526110d081611094565b9050919050565b7f412066756c66696c6c6564206f666665722063616e6e6f742062652063616e6360008201527f656c6c6564000000000000000000000000000000000000000000000000000000602082015250565b6000611133602583610cb7565b915061113e826110d7565b604082019050919050565b6000602082019050818103600083015261116281611126565b9050919050565b7f416e206f666665722063616e6e6f742062652063616e63656c6c65642074776960008201527f6365000000000000000000000000000000000000000000000000000000000000602082015250565b60006111c5602283610cb7565b91506111d082611169565b604082019050919050565b600060208201905081810360008301526111f4816111b8565b905091905056fea26469706673582212209bf26d5c89ac08f4b796160b9e129445cee8873baf3e2091482174c89271510b64736f6c63430008090033",
  "immutableReferences": {},
  "source": "// SPDX-License-Identifier: MIT\npragma solidity ^0.8.0;\n\nimport \"./gremlin.sol\";\n\ncontract GremlinMarketplace {\n    uint256 public offerCount;\n    mapping(uint256 => _Offer) public offers;\n    mapping(address => uint256) public userFunds;\n    Gremlin gremlin;\n\n    struct _Offer {\n        uint256 offerId;\n        uint256 id;\n        address user;\n        uint256 price;\n        bool fulfilled;\n        bool cancelled;\n    }\n\n    event Offer(\n        uint256 offerId,\n        uint256 id,\n        address user,\n        uint256 price,\n        bool fulfilled,\n        bool cancelled\n    );\n\n    event OfferFilled(uint256 offerId, uint256 id, address newOwner);\n    event OfferCancelled(uint256 offerId, uint256 id, address owner);\n\n    constructor(address _gremlin) {\n        gremlin = Gremlin(_gremlin);\n    }\n\n    function makeOffer(uint256 _id, uint256 _price) public {\n        gremlin.transferFrom(msg.sender, address(this), _id);\n        offerCount++;\n        offers[offerCount] = _Offer(\n            offerCount,\n            _id,\n            msg.sender,\n            _price,\n            false,\n            false\n        );\n        emit Offer(offerCount, _id, msg.sender, _price, false, false);\n    }\n\n    function fillOffer(uint256 _offerId) public payable {\n        _Offer storage _offer = offers[_offerId];\n        require(_offer.offerId == _offerId, \"The offer must exist\");\n        require(\n            _offer.user != msg.sender,\n            \"The owner of the offer cannot fill it\"\n        );\n        require(!_offer.fulfilled, \"An offer cannot be fulfilled twice\");\n        require(!_offer.cancelled, \"A cancelled offer cannot be fulfilled\");\n        require(\n            msg.value == _offer.price,\n            \"The ETH amount should match with the NFT Price\"\n        );\n        gremlin.transferFrom(address(this), msg.sender, _offer.id);\n        require(msg.value > 0, \"This user has no funds to be claimed\");\n        payable(_offer.user).transfer(msg.value);\n        _offer.fulfilled = true;\n        emit OfferFilled(_offerId, _offer.id, msg.sender);\n    }\n\n    function cancelOffer(uint256 _offerId) public {\n        _Offer storage _offer = offers[_offerId];\n        require(_offer.offerId == _offerId, \"The offer must exist\");\n        require(\n            _offer.user == msg.sender,\n            \"The offer can only be canceled by the owner\"\n        );\n        require(\n            _offer.fulfilled == false,\n            \"A fulfilled offer cannot be cancelled\"\n        );\n        require(\n            _offer.cancelled == false,\n            \"An offer cannot be cancelled twice\"\n        );\n        gremlin.transferFrom(address(this), msg.sender, _offer.id);\n        _offer.cancelled = true;\n        emit OfferCancelled(_offerId, _offer.id, msg.sender);\n    }\n\n    // Fallback: reverts if Ether is sent to this smart-contract by mistake\n    fallback() external {\n        revert();\n    }\n}\n",
  "sourcePath": "/Users/duxiaofeng/code/gremlin/blockchain/contracts/GremlinMarketplace.sol",
  "compiler": {
    "name": "solc",
    "version": "0.8.9+commit.e5eed63a.Darwin.appleclang"
  },
  "schemaVersion": "3.4.3",
  "updatedAt": "2021-11-06T10:15:03.006Z",
  "networkType": "ethereum",
  "devdoc": {
    "kind": "dev",
    "methods": {},
    "version": 1
  },
  "userdoc": {
    "kind": "user",
    "methods": {},
    "version": 1
  }
}