{
  "contractName": "GremlinMarketplace",
  "abi": [
    {
      "inputs": [
        {
          "internalType": "address",
          "name": "_gremlin",
          "type": "address"
        }
      ],
      "stateMutability": "nonpayable",
      "type": "constructor"
    },
    {
      "anonymous": false,
      "inputs": [
        {
          "indexed": false,
          "internalType": "uint256",
          "name": "offerId",
          "type": "uint256"
        },
        {
          "indexed": false,
          "internalType": "uint256",
          "name": "id",
          "type": "uint256"
        },
        {
          "indexed": false,
          "internalType": "address",
          "name": "user",
          "type": "address"
        },
        {
          "indexed": false,
          "internalType": "uint256",
          "name": "price",
          "type": "uint256"
        },
        {
          "indexed": false,
          "internalType": "bool",
          "name": "fulfilled",
          "type": "bool"
        },
        {
          "indexed": false,
          "internalType": "bool",
          "name": "cancelled",
          "type": "bool"
        }
      ],
      "name": "Offer",
      "type": "event"
    },
    {
      "anonymous": false,
      "inputs": [
        {
          "indexed": false,
          "internalType": "uint256",
          "name": "offerId",
          "type": "uint256"
        },
        {
          "indexed": false,
          "internalType": "uint256",
          "name": "id",
          "type": "uint256"
        },
        {
          "indexed": false,
          "internalType": "address",
          "name": "owner",
          "type": "address"
        }
      ],
      "name": "OfferCancelled",
      "type": "event"
    },
    {
      "anonymous": false,
      "inputs": [
        {
          "indexed": false,
          "internalType": "uint256",
          "name": "offerId",
          "type": "uint256"
        },
        {
          "indexed": false,
          "internalType": "uint256",
          "name": "id",
          "type": "uint256"
        },
        {
          "indexed": false,
          "internalType": "address",
          "name": "newOwner",
          "type": "address"
        }
      ],
      "name": "OfferFilled",
      "type": "event"
    },
    {
      "stateMutability": "nonpayable",
      "type": "fallback"
    },
    {
      "inputs": [],
      "name": "offerCount",
      "outputs": [
        {
          "internalType": "uint256",
          "name": "",
          "type": "uint256"
        }
      ],
      "stateMutability": "view",
      "type": "function",
      "constant": true
    },
    {
      "inputs": [
        {
          "internalType": "uint256",
          "name": "",
          "type": "uint256"
        }
      ],
      "name": "offers",
      "outputs": [
        {
          "internalType": "uint256",
          "name": "offerId",
          "type": "uint256"
        },
        {
          "internalType": "uint256",
          "name": "id",
          "type": "uint256"
        },
        {
          "internalType": "address",
          "name": "user",
          "type": "address"
        },
        {
          "internalType": "uint256",
          "name": "price",
          "type": "uint256"
        },
        {
          "internalType": "bool",
          "name": "fulfilled",
          "type": "bool"
        },
        {
          "internalType": "bool",
          "name": "cancelled",
          "type": "bool"
        }
      ],
      "stateMutability": "view",
      "type": "function",
      "constant": true
    },
    {
      "inputs": [
        {
          "internalType": "uint256",
          "name": "_id",
          "type": "uint256"
        },
        {
          "internalType": "uint256",
          "name": "_price",
          "type": "uint256"
        }
      ],
      "name": "makeOffer",
      "outputs": [],
      "stateMutability": "nonpayable",
      "type": "function"
    },
    {
      "inputs": [
        {
          "internalType": "uint256",
          "name": "_offerId",
          "type": "uint256"
        }
      ],
      "name": "fillOffer",
      "outputs": [],
      "stateMutability": "payable",
      "type": "function",
      "payable": true
    },
    {
      "inputs": [
        {
          "internalType": "uint256",
          "name": "_offerId",
          "type": "uint256"
        }
      ],
      "name": "cancelOffer",
      "outputs": [],
      "stateMutability": "nonpayable",
      "type": "function"
    }
  ],
  "bytecode": "0x60806040523480156200001157600080fd5b50604051620011d6380380620011d68339818101604052810190620000379190620000e9565b80600260006101000a81548173ffffffffffffffffffffffffffffffffffffffff021916908373ffffffffffffffffffffffffffffffffffffffff160217905550506200011b565b600080fd5b600073ffffffffffffffffffffffffffffffffffffffff82169050919050565b6000620000b18262000084565b9050919050565b620000c381620000a4565b8114620000cf57600080fd5b50565b600081519050620000e381620000b8565b92915050565b6000602082840312156200010257620001016200007f565b5b60006200011284828501620000d2565b91505092915050565b6110ab806200012b6000396000f3fe60806040526004361061004e5760003560e01c806305b7cdd3146100615780631115c24d1461008a57806385dba861146100b55780638a72ea6a146100d1578063ef706adf146101135761004f565b5b34801561005b57600080fd5b50600080fd5b34801561006d57600080fd5b50610088600480360381019061008391906109c0565b61013c565b005b34801561009657600080fd5b5061009f610333565b6040516100ac9190610a0f565b60405180910390f35b6100cf60048036038101906100ca9190610a2a565b610339565b005b3480156100dd57600080fd5b506100f860048036038101906100f39190610a2a565b610677565b60405161010a96959493929190610ab3565b60405180910390f35b34801561011f57600080fd5b5061013a60048036038101906101359190610a2a565b6106ed565b005b600260009054906101000a900473ffffffffffffffffffffffffffffffffffffffff1673ffffffffffffffffffffffffffffffffffffffff166323b872dd3330856040518463ffffffff1660e01b815260040161019b93929190610b14565b600060405180830381600087803b1580156101b557600080fd5b505af11580156101c9573d6000803e3d6000fd5b505050506000808154809291906101df90610b7a565b91905055506040518060c0016040528060005481526020018381526020013373ffffffffffffffffffffffffffffffffffffffff168152602001828152602001600015158152602001600015158152506001600080548152602001908152602001600020600082015181600001556020820151816001015560408201518160020160006101000a81548173ffffffffffffffffffffffffffffffffffffffff021916908373ffffffffffffffffffffffffffffffffffffffff1602179055506060820151816003015560808201518160040160006101000a81548160ff02191690831515021790555060a08201518160040160016101000a81548160ff0219169083151502179055509050507f93e711896d4ef527d199d7e101922e20f918cbb248a0fb0977c52fda24aa1f1d60005483338460008060405161032796959493929190610ab3565b60405180910390a15050565b60005481565b600060016000838152602001908152602001600020905081816000015414610396576040517f08c379a000000000000000000000000000000000000000000000000000000000815260040161038d90610c20565b60405180910390fd5b3373ffffffffffffffffffffffffffffffffffffffff168160020160009054906101000a900473ffffffffffffffffffffffffffffffffffffffff1673ffffffffffffffffffffffffffffffffffffffff161415610429576040517f08c379a000000000000000000000000000000000000000000000000000000000815260040161042090610cb2565b60405180910390fd5b3481600301541461046f576040517f08c379a000000000000000000000000000000000000000000000000000000000815260040161046690610d44565b60405180910390fd5b8060040160009054906101000a900460ff16156104c1576040517f08c379a00000000000000000000000000000000000000000000000000000000081526004016104b890610dd6565b60405180910390fd5b8060040160019054906101000a900460ff1615610513576040517f08c379a000000000000000000000000000000000000000000000000000000000815260040161050a90610e68565b60405180910390fd5b8060020160009054906101000a900473ffffffffffffffffffffffffffffffffffffffff1673ffffffffffffffffffffffffffffffffffffffff166108fc349081150290604051600060405180830381858888f1935050505015801561057d573d6000803e3d6000fd5b50600260009054906101000a900473ffffffffffffffffffffffffffffffffffffffff1673ffffffffffffffffffffffffffffffffffffffff166323b872dd303384600101546040518463ffffffff1660e01b81526004016105e193929190610b14565b600060405180830381600087803b1580156105fb57600080fd5b505af115801561060f573d6000803e3d6000fd5b5050505060018160040160006101000a81548160ff0219169083151502179055507fd9157c065213ada613694e84b1e27fe2efd62d85c6b82bd6c842a4999491e72a816000015482600101543360405161066b93929190610e88565b60405180910390a15050565b60016020528060005260406000206000915090508060000154908060010154908060020160009054906101000a900473ffffffffffffffffffffffffffffffffffffffff16908060030154908060040160009054906101000a900460ff16908060040160019054906101000a900460ff16905086565b60006001600083815260200190815260200160002090508181600001541461074a576040517f08c379a000000000000000000000000000000000000000000000000000000000815260040161074190610c20565b60405180910390fd5b3373ffffffffffffffffffffffffffffffffffffffff168160020160009054906101000a900473ffffffffffffffffffffffffffffffffffffffff1673ffffffffffffffffffffffffffffffffffffffff16146107dc576040517f08c379a00000000000000000000000000000000000000000000000000000000081526004016107d390610f31565b60405180910390fd5b600015158160040160009054906101000a900460ff16151514610834576040517f08c379a000000000000000000000000000000000000000000000000000000000815260040161082b90610fc3565b60405180910390fd5b600015158160040160019054906101000a900460ff1615151461088c576040517f08c379a000000000000000000000000000000000000000000000000000000000815260040161088390611055565b60405180910390fd5b600260009054906101000a900473ffffffffffffffffffffffffffffffffffffffff1673ffffffffffffffffffffffffffffffffffffffff166323b872dd303384600101546040518463ffffffff1660e01b81526004016108ef93929190610b14565b600060405180830381600087803b15801561090957600080fd5b505af115801561091d573d6000803e3d6000fd5b5050505060018160040160016101000a81548160ff0219169083151502179055507f5b166b4d0498ff8c4719999cb6154c5d197e6f020f9fbfcf9d347f84576cfab7816000015482600101543360405161097993929190610e88565b60405180910390a15050565b600080fd5b6000819050919050565b61099d8161098a565b81146109a857600080fd5b50565b6000813590506109ba81610994565b92915050565b600080604083850312156109d7576109d6610985565b5b60006109e5858286016109ab565b92505060206109f6858286016109ab565b9150509250929050565b610a098161098a565b82525050565b6000602082019050610a246000830184610a00565b92915050565b600060208284031215610a4057610a3f610985565b5b6000610a4e848285016109ab565b91505092915050565b600073ffffffffffffffffffffffffffffffffffffffff82169050919050565b6000610a8282610a57565b9050919050565b610a9281610a77565b82525050565b60008115159050919050565b610aad81610a98565b82525050565b600060c082019050610ac86000830189610a00565b610ad56020830188610a00565b610ae26040830187610a89565b610aef6060830186610a00565b610afc6080830185610aa4565b610b0960a0830184610aa4565b979650505050505050565b6000606082019050610b296000830186610a89565b610b366020830185610a89565b610b436040830184610a00565b949350505050565b7f4e487b7100000000000000000000000000000000000000000000000000000000600052601160045260246000fd5b6000610b858261098a565b91507fffffffffffffffffffffffffffffffffffffffffffffffffffffffffffffffff821415610bb857610bb7610b4b565b5b600182019050919050565b600082825260208201905092915050565b7f546865206f66666572206d757374206578697374000000000000000000000000600082015250565b6000610c0a601483610bc3565b9150610c1582610bd4565b602082019050919050565b60006020820190508181036000830152610c3981610bfd565b9050919050565b7f546865206f776e6572206f6620746865206f666665722063616e6e6f7420666960008201527f6c6c206974000000000000000000000000000000000000000000000000000000602082015250565b6000610c9c602583610bc3565b9150610ca782610c40565b604082019050919050565b60006020820190508181036000830152610ccb81610c8f565b9050919050565b7f5468652045544820616d6f756e742073686f756c64206d61746368207769746860008201527f20746865204e4654205072696365000000000000000000000000000000000000602082015250565b6000610d2e602e83610bc3565b9150610d3982610cd2565b604082019050919050565b60006020820190508181036000830152610d5d81610d21565b9050919050565b7f416e206f666665722063616e6e6f742062652066756c66696c6c65642074776960008201527f6365000000000000000000000000000000000000000000000000000000000000602082015250565b6000610dc0602283610bc3565b9150610dcb82610d64565b604082019050919050565b60006020820190508181036000830152610def81610db3565b9050919050565b7f412063616e63656c6c6564206f666665722063616e6e6f742062652066756c6660008201527f696c6c6564000000000000000000000000000000000000000000000000000000602082015250565b6000610e52602583610bc3565b9150610e5d82610df6565b604082019050919050565b60006020820190508181036000830152610e8181610e45565b9050919050565b6000606082019050610e9d6000830186610a00565b610eaa6020830185610a00565b610eb76040830184610a89565b949350505050565b7f546865206f666665722063616e206f6e6c792062652063616e63656c6564206260008201527f7920746865206f776e6572000000000000000000000000000000000000000000602082015250565b6000610f1b602b83610bc3565b9150610f2682610ebf565b604082019050919050565b60006020820190508181036000830152610f4a81610f0e565b9050919050565b7f412066756c66696c6c6564206f666665722063616e6e6f742062652063616e6360008201527f656c6c6564000000000000000000000000000000000000000000000000000000602082015250565b6000610fad602583610bc3565b9150610fb882610f51565b604082019050919050565b60006020820190508181036000830152610fdc81610fa0565b9050919050565b7f416e206f666665722063616e6e6f742062652063616e63656c6c65642074776960008201527f6365000000000000000000000000000000000000000000000000000000000000602082015250565b600061103f602283610bc3565b915061104a82610fe3565b604082019050919050565b6000602082019050818103600083015261106e81611032565b905091905056fea2646970667358221220fd57f21660a66082e93f6c882117fa8cda1cc4a594738bdb67ac1780428acb9c64736f6c63430008090033",
  "immutableReferences": {},
  "source": "// SPDX-License-Identifier: MIT\npragma solidity ^0.8.0;\n\nimport \"./gremlin.sol\";\n\ncontract GremlinMarketplace {\n  uint256 public offerCount;\n  mapping(uint256 => _Offer) public offers;\n  Gremlin gremlin;\n\n  struct _Offer {\n    uint256 offerId;\n    uint256 id;\n    address user;\n    uint256 price;\n    bool fulfilled;\n    bool cancelled;\n  }\n\n  event Offer(uint256 offerId, uint256 id, address user, uint256 price, bool fulfilled, bool cancelled);\n  event OfferFilled(uint256 offerId, uint256 id, address newOwner);\n  event OfferCancelled(uint256 offerId, uint256 id, address owner);\n\n  constructor(address _gremlin) {\n    gremlin = Gremlin(_gremlin);\n  }\n\n  function makeOffer(uint256 _id, uint256 _price) public {\n    gremlin.transferFrom(msg.sender, address(this), _id);\n    offerCount++;\n    offers[offerCount] = _Offer(offerCount, _id, msg.sender, _price, false, false);\n    emit Offer(offerCount, _id, msg.sender, _price, false, false);\n  }\n\n  function fillOffer(uint256 _offerId) public payable {\n    _Offer storage _offer = offers[_offerId];\n    require(_offer.offerId == _offerId, \"The offer must exist\");\n    require(_offer.user != msg.sender, \"The owner of the offer cannot fill it\");\n    require(_offer.price == msg.value, \"The ETH amount should match with the NFT Price\");\n    require(!_offer.fulfilled, \"An offer cannot be fulfilled twice\");\n    require(!_offer.cancelled, \"A cancelled offer cannot be fulfilled\");\n    payable(_offer.user).transfer(msg.value);\n    gremlin.transferFrom(address(this), msg.sender, _offer.id);\n    _offer.fulfilled = true;\n    emit OfferFilled(_offer.offerId, _offer.id, msg.sender);\n  }\n\n  function cancelOffer(uint256 _offerId) public {\n    _Offer storage _offer = offers[_offerId];\n    require(_offer.offerId == _offerId, \"The offer must exist\");\n    require(_offer.user == msg.sender, \"The offer can only be canceled by the owner\");\n    require(_offer.fulfilled == false, \"A fulfilled offer cannot be cancelled\");\n    require(_offer.cancelled == false, \"An offer cannot be cancelled twice\");\n    gremlin.transferFrom(address(this), msg.sender, _offer.id);\n    _offer.cancelled = true;\n    emit OfferCancelled(_offer.offerId, _offer.id, msg.sender);\n  }\n\n  // Fallback: reverts if Ether is sent to this smart-contract by mistake\n  fallback() external {\n    revert();\n  }\n}\n",
  "sourcePath": "/Users/duxiaofeng/code/gremlin/blockchain/contracts/GremlinMarketplace.sol",
  "compiler": {
    "name": "solc",
    "version": "0.8.9+commit.e5eed63a.Darwin.appleclang"
  },
  "schemaVersion": "3.4.3",
  "updatedAt": "2021-11-07T18:32:33.207Z",
  "networkType": "ethereum",
  "devdoc": {
    "kind": "dev",
    "methods": {},
    "version": 1
  },
  "userdoc": {
    "kind": "user",
    "methods": {},
    "version": 1
  }
}